{
  "transactions": [
    {
      "hash": "0xce07ba79fc728d00d70933fd194d715d07fe7efaee0d1475a95cd49ae2d6943b",
      "transactionType": "CALL",
      "contractName": null,
      "contractAddress": "0xd7409fa426949d884e82762e0ff54145e7fa9658",
      "function": "pullWithPermit(address,address,uint256,uint256,uint8,bytes32,bytes32)",
      "arguments": [
        "0x833589fCD6eDb6E08f4c7C32D4f71b54bdA02913",
        "0xCEf67989ae740cC9c92fa7385F003F84EAAFd915",
        "1000",
        "1779371365",
        "27",
        "0x4754bafc7a34634ff6d7b20154ca07757ceb81fa8245848f223e192c2c68c7e9",
        "0x58564f831b13b982c1ba05b9a379fbf2da36daa29fbed844fe706591238a8e58"
      ],
      "transaction": {
        "from": "0xcef67989ae740cc9c92fa7385f003f84eaafd915",
        "to": "0xd7409fa426949d884e82762e0ff54145e7fa9658",
        "gas": "0x1f6ba",
        "value": "0x0",
        "input": "0x282d4cc1000000000000000000000000833589fcd6edb6e08f4c7c32d4f71b54bda02913000000000000000000000000cef67989ae740cc9c92fa7385f003f84eaafd91500000000000000000000000000000000000000000000000000000000000003e8000000000000000000000000000000000000000000000000000000006a0f0d65000000000000000000000000000000000000000000000000000000000000001b4754bafc7a34634ff6d7b20154ca07757ceb81fa8245848f223e192c2c68c7e958564f831b13b982c1ba05b9a379fbf2da36daa29fbed844fe706591238a8e58",
        "nonce": "0x3a7",
        "chainId": "0x2105"
      },
      "additionalContracts": [],
      "isFixedGasLimit": false
    }
  ],
  "receipts": [
    {
      "status": "0x1",
      "cumulativeGasUsed": "0x9c3b10",
      "logs": [
        {
          "address": "0x833589fcd6edb6e08f4c7c32d4f71b54bda02913",
          "topics": [
            "0x8c5be1e5ebec7d5bd14f71427d1e84f3dd0314c0f7b2291e5b200ac8c7c3b925",
            "0x000000000000000000000000cef67989ae740cc9c92fa7385f003f84eaafd915",
            "0x000000000000000000000000d7409fa426949d884e82762e0ff54145e7fa9658"
          ],
          "data": "0x00000000000000000000000000000000000000000000000000000000000003e8",
          "blockHash": "0x0000000000000000000000000000000000000000000000000000000000000000",
          "blockNumber": "0x2c2513e",
          "blockTimestamp": "0x6a0eff5f",
          "transactionHash": "0xce07ba79fc728d00d70933fd194d715d07fe7efaee0d1475a95cd49ae2d6943b",
          "transactionIndex": "0x34",
          "logIndex": "0x122",
          "removed": false
        },
        {
          "address": "0x833589fcd6edb6e08f4c7c32d4f71b54bda02913",
          "topics": [
            "0xddf252ad1be2c89b69c2b068fc378daa952ba7f163c4a11628f55a4df523b3ef",
            "0x000000000000000000000000cef67989ae740cc9c92fa7385f003f84eaafd915",
            "0x000000000000000000000000d7409fa426949d884e82762e0ff54145e7fa9658"
          ],
          "data": "0x00000000000000000000000000000000000000000000000000000000000003e8",
          "blockHash": "0x0000000000000000000000000000000000000000000000000000000000000000",
          "blockNumber": "0x2c2513e",
          "blockTimestamp": "0x6a0eff5f",
          "transactionHash": "0xce07ba79fc728d00d70933fd194d715d07fe7efaee0d1475a95cd49ae2d6943b",
          "transactionIndex": "0x34",
          "logIndex": "0x123",
          "removed": false
        }
      ],
      "logsBloom": "0x00000000000000000000000000000000000000000000000000000000000000000000000000000000000000000000100000000000000080000000000000200000000000000000000000000008000000000000000000080000000000000000000000800000000000000000000000000000000000000000000000000014000000000000000000000000000000000000000000000000000000000000000000400000020000000040000000000000000000000000000000000000000000000000000000000002000000002000000000000000000000000000000000000000000000000010000000000000000002000000000000000000000000000000000000000000",
      "type": "0x2",
      "transactionHash": "0xce07ba79fc728d00d70933fd194d715d07fe7efaee0d1475a95cd49ae2d6943b",
      "transactionIndex": "0x34",
      "blockHash": "0x0000000000000000000000000000000000000000000000000000000000000000",
      "blockNumber": "0x2c2513e",
      "gasUsed": "0x16bf8",
      "effectiveGasPrice": "0x5b8d80",
      "blobGasUsed": "0x65c0",
      "from": "0xcef67989ae740cc9c92fa7385f003f84eaafd915",
      "to": "0xd7409fa426949d884e82762e0ff54145e7fa9658",
      "contractAddress": null,
      "daFootprintGasScalar": "0x94",
      "l1BaseFeeScalar": "0x8dd",
      "l1BlobBaseFee": "0x5ea965",
      "l1BlobBaseFeeScalar": "0x101c12",
      "l1Fee": "0x450ce7d6",
      "l1GasPrice": "0x69771cf",
      "l1GasUsed": "0xb09"
    }
  ],
  "libraries": [],
  "pending": [],
  "returns": {},
  "timestamp": 1779367774521,
  "chain": 8453,
  "commit": "2c3b551"
}