{
  "transactions": [
    {
      "hash": "0xed3d281d3c753ffe92611db6c3c5b0ccd0f3e17c1f0b04f4fe8561f995485703",
      "transactionType": "CALL",
      "contractName": null,
      "contractAddress": "0xd7409fa426949d884e82762e0ff54145e7fa9658",
      "function": "pullWithPermit(address,address,uint256,uint256,uint8,bytes32,bytes32)",
      "arguments": [
        "0x833589fCD6eDb6E08f4c7C32D4f71b54bdA02913",
        "0xCEf67989ae740cC9c92fa7385F003F84EAAFd915",
        "1000",
        "1779374149",
        "28",
        "0xc78a09b1ba7440a851804a885869bb1f09286f90acacdb273f2c757394d65bc9",
        "0x5e5c03eec0aac0474e33478995c202d426d0c21248d6f891132a7670ebe41343"
      ],
      "transaction": {
        "from": "0xcef67989ae740cc9c92fa7385f003f84eaafd915",
        "to": "0xd7409fa426949d884e82762e0ff54145e7fa9658",
        "gas": "0x19e5a",
        "value": "0x0",
        "input": "0x282d4cc1000000000000000000000000833589fcd6edb6e08f4c7c32d4f71b54bda02913000000000000000000000000cef67989ae740cc9c92fa7385f003f84eaafd91500000000000000000000000000000000000000000000000000000000000003e8000000000000000000000000000000000000000000000000000000006a0f1845000000000000000000000000000000000000000000000000000000000000001cc78a09b1ba7440a851804a885869bb1f09286f90acacdb273f2c757394d65bc95e5c03eec0aac0474e33478995c202d426d0c21248d6f891132a7670ebe41343",
        "nonce": "0x3b2",
        "chainId": "0x2105"
      },
      "additionalContracts": [],
      "isFixedGasLimit": false
    }
  ],
  "receipts": [
    {
      "status": "0x1",
      "cumulativeGasUsed": "0x221a346",
      "logs": [
        {
          "address": "0x833589fcd6edb6e08f4c7c32d4f71b54bda02913",
          "topics": [
            "0x8c5be1e5ebec7d5bd14f71427d1e84f3dd0314c0f7b2291e5b200ac8c7c3b925",
            "0x000000000000000000000000cef67989ae740cc9c92fa7385f003f84eaafd915",
            "0x000000000000000000000000d7409fa426949d884e82762e0ff54145e7fa9658"
          ],
          "data": "0x00000000000000000000000000000000000000000000000000000000000003e8",
          "blockHash": "0x994099087eecba3a2f8aec45d6bb7ea0d21677a6861b0b9e418237837ed7ff52",
          "blockNumber": "0x2c256ab",
          "blockTimestamp": "0x6a0f0a39",
          "transactionHash": "0xed3d281d3c753ffe92611db6c3c5b0ccd0f3e17c1f0b04f4fe8561f995485703",
          "transactionIndex": "0xc7",
          "logIndex": "0x2b3",
          "removed": false
        },
        {
          "address": "0x833589fcd6edb6e08f4c7c32d4f71b54bda02913",
          "topics": [
            "0xddf252ad1be2c89b69c2b068fc378daa952ba7f163c4a11628f55a4df523b3ef",
            "0x000000000000000000000000cef67989ae740cc9c92fa7385f003f84eaafd915",
            "0x000000000000000000000000d7409fa426949d884e82762e0ff54145e7fa9658"
          ],
          "data": "0x00000000000000000000000000000000000000000000000000000000000003e8",
          "blockHash": "0x994099087eecba3a2f8aec45d6bb7ea0d21677a6861b0b9e418237837ed7ff52",
          "blockNumber": "0x2c256ab",
          "blockTimestamp": "0x6a0f0a39",
          "transactionHash": "0xed3d281d3c753ffe92611db6c3c5b0ccd0f3e17c1f0b04f4fe8561f995485703",
          "transactionIndex": "0xc7",
          "logIndex": "0x2b4",
          "removed": false
        }
      ],
      "logsBloom": "0x00000000000000000000000000000000000000000000000000000000000000000000000000000000000000000000100000000000000080000000000000200000000000000000000000000008000000000000000000080000000000000000000000800000000000000000000000000000000000000000000000000014000000000000000000000000000000000000000000000000000000000000000000400000020000000040000000000000000000000000000000000000000000000000000000000002000000002000000000000000000000000000000000000000000000000010000000000000000002000000000000000000000000000000000000000000",
      "type": "0x2",
      "transactionHash": "0xed3d281d3c753ffe92611db6c3c5b0ccd0f3e17c1f0b04f4fe8561f995485703",
      "transactionIndex": "0xc7",
      "blockHash": "0x994099087eecba3a2f8aec45d6bb7ea0d21677a6861b0b9e418237837ed7ff52",
      "blockNumber": "0x2c256ab",
      "gasUsed": "0x12bfd",
      "effectiveGasPrice": "0x5b8d80",
      "blobGasUsed": "0x65c0",
      "from": "0xcef67989ae740cc9c92fa7385f003f84eaafd915",
      "to": "0xd7409fa426949d884e82762e0ff54145e7fa9658",
      "contractAddress": null,
      "daFootprintGasScalar": "0x94",
      "l1BaseFeeScalar": "0x8dd",
      "l1BlobBaseFee": "0x6b7e75",
      "l1BlobBaseFeeScalar": "0x101c12",
      "l1Fee": "0x864d46d4",
      "l1GasPrice": "0x8bd4177",
      "l1GasUsed": "0xb09"
    }
  ],
  "libraries": [],
  "pending": [],
  "returns": {},
  "timestamp": 1779370554161,
  "chain": 8453,
  "commit": "2c3b551"
}