{
  "transactions": [
    {
      "hash": "0xb5f4b128b8de074b3c5fd218acca76645d24666598637fd4f5af90b8acb52893",
      "transactionType": "CALL",
      "contractName": null,
      "contractAddress": "0xd7409fa426949d884e82762e0ff54145e7fa9658",
      "function": "pullWithPermit(address,address,uint256,uint256,uint8,bytes32,bytes32)",
      "arguments": [
        "0x833589fCD6eDb6E08f4c7C32D4f71b54bdA02913",
        "0xCEf67989ae740cC9c92fa7385F003F84EAAFd915",
        "1000",
        "1779372637",
        "27",
        "0xb70640f11138fabf7d371df9abec3ba1e3a29e72f6b708be5b53e1824299268d",
        "0x6edd73e03132805598d9bc956e75aff8fbf5bb875a9bd470ae3be717ae86fcbf"
      ],
      "transaction": {
        "from": "0xcef67989ae740cc9c92fa7385f003f84eaafd915",
        "to": "0xd7409fa426949d884e82762e0ff54145e7fa9658",
        "gas": "0x19e44",
        "value": "0x0",
        "input": "0x282d4cc1000000000000000000000000833589fcd6edb6e08f4c7c32d4f71b54bda02913000000000000000000000000cef67989ae740cc9c92fa7385f003f84eaafd91500000000000000000000000000000000000000000000000000000000000003e8000000000000000000000000000000000000000000000000000000006a0f125d000000000000000000000000000000000000000000000000000000000000001bb70640f11138fabf7d371df9abec3ba1e3a29e72f6b708be5b53e1824299268d6edd73e03132805598d9bc956e75aff8fbf5bb875a9bd470ae3be717ae86fcbf",
        "nonce": "0x3ae",
        "chainId": "0x2105"
      },
      "additionalContracts": [],
      "isFixedGasLimit": false
    }
  ],
  "receipts": [
    {
      "status": "0x1",
      "cumulativeGasUsed": "0x418ddf",
      "logs": [
        {
          "address": "0x833589fcd6edb6e08f4c7c32d4f71b54bda02913",
          "topics": [
            "0x8c5be1e5ebec7d5bd14f71427d1e84f3dd0314c0f7b2291e5b200ac8c7c3b925",
            "0x000000000000000000000000cef67989ae740cc9c92fa7385f003f84eaafd915",
            "0x000000000000000000000000d7409fa426949d884e82762e0ff54145e7fa9658"
          ],
          "data": "0x00000000000000000000000000000000000000000000000000000000000003e8",
          "blockHash": "0x0000000000000000000000000000000000000000000000000000000000000000",
          "blockNumber": "0x2c253b8",
          "blockTimestamp": "0x6a0f0453",
          "transactionHash": "0xb5f4b128b8de074b3c5fd218acca76645d24666598637fd4f5af90b8acb52893",
          "transactionIndex": "0x23",
          "logIndex": "0x61",
          "removed": false
        },
        {
          "address": "0x833589fcd6edb6e08f4c7c32d4f71b54bda02913",
          "topics": [
            "0xddf252ad1be2c89b69c2b068fc378daa952ba7f163c4a11628f55a4df523b3ef",
            "0x000000000000000000000000cef67989ae740cc9c92fa7385f003f84eaafd915",
            "0x000000000000000000000000d7409fa426949d884e82762e0ff54145e7fa9658"
          ],
          "data": "0x00000000000000000000000000000000000000000000000000000000000003e8",
          "blockHash": "0x0000000000000000000000000000000000000000000000000000000000000000",
          "blockNumber": "0x2c253b8",
          "blockTimestamp": "0x6a0f0453",
          "transactionHash": "0xb5f4b128b8de074b3c5fd218acca76645d24666598637fd4f5af90b8acb52893",
          "transactionIndex": "0x23",
          "logIndex": "0x62",
          "removed": false
        }
      ],
      "logsBloom": "0x00000000000000000000000000000000000000000000000000000000000000000000000000000000000000000000100000000000000080000000000000200000000000000000000000000008000000000000000000080000000000000000000000800000000000000000000000000000000000000000000000000014000000000000000000000000000000000000000000000000000000000000000000400000020000000040000000000000000000000000000000000000000000000000000000000002000000002000000000000000000000000000000000000000000000000010000000000000000002000000000000000000000000000000000000000000",
      "type": "0x2",
      "transactionHash": "0xb5f4b128b8de074b3c5fd218acca76645d24666598637fd4f5af90b8acb52893",
      "transactionIndex": "0x23",
      "blockHash": "0x0000000000000000000000000000000000000000000000000000000000000000",
      "blockNumber": "0x2c253b8",
      "gasUsed": "0x12bed",
      "effectiveGasPrice": "0x5b8d80",
      "blobGasUsed": "0x65c0",
      "from": "0xcef67989ae740cc9c92fa7385f003f84eaafd915",
      "to": "0xd7409fa426949d884e82762e0ff54145e7fa9658",
      "contractAddress": null,
      "daFootprintGasScalar": "0x94",
      "l1BaseFeeScalar": "0x8dd",
      "l1BlobBaseFee": "0x8a18fd",
      "l1BlobBaseFeeScalar": "0x101c12",
      "l1Fee": "0xa0e7ea1b",
      "l1GasPrice": "0x94b64fe",
      "l1GasUsed": "0xb09"
    }
  ],
  "libraries": [],
  "pending": [],
  "returns": {},
  "timestamp": 1779369042735,
  "chain": 8453,
  "commit": "2c3b551"
}