{
  "transactions": [
    {
      "hash": "0xde1b828b25b5af2b65507d0a6a73768887d5b3867bd1fc2175087200c51012ff",
      "transactionType": "CALL",
      "contractName": null,
      "contractAddress": "0xcef67989ae740cc9c92fa7385f003f84eaafd915",
      "function": "executeBatch((address,uint256,bytes)[])",
      "arguments": [
        "[(0x833589fCD6eDb6E08f4c7C32D4f71b54bdA02913, 0, 0x095ea7b300000000000000000000000089f4916479c81470ca90737e3cc60e99062d338800000000000000000000000000000000000000000000000000000000000003e8), (0x89f4916479c81470CA90737e3cc60e99062d3388, 0, 0x7372c2b5000000000000000000000000833589fcd6edb6e08f4c7c32d4f71b54bda02913000000000000000000000000cef67989ae740cc9c92fa7385f003f84eaafd91500000000000000000000000000000000000000000000000000000000000003e8)]"
      ],
      "transaction": {
        "from": "0xcef67989ae740cc9c92fa7385f003f84eaafd915",
        "to": "0xcef67989ae740cc9c92fa7385f003f84eaafd915",
        "gas": "0x203f5",
        "value": "0x0",
        "input": "0x34fcd5be0000000000000000000000000000000000000000000000000000000000000020000000000000000000000000000000000000000000000000000000000000000200000000000000000000000000000000000000000000000000000000000000400000000000000000000000000000000000000000000000000000000000000120000000000000000000000000833589fcd6edb6e08f4c7c32d4f71b54bda02913000000000000000000000000000000000000000000000000000000000000000000000000000000000000000000000000000000000000000000000000000000600000000000000000000000000000000000000000000000000000000000000044095ea7b300000000000000000000000089f4916479c81470ca90737e3cc60e99062d338800000000000000000000000000000000000000000000000000000000000003e80000000000000000000000000000000000000000000000000000000000000000000000000000000089f4916479c81470ca90737e3cc60e99062d33880000000000000000000000000000000000000000000000000000000000000000000000000000000000000000000000000000000000000000000000000000006000000000000000000000000000000000000000000000000000000000000000647372c2b5000000000000000000000000833589fcd6edb6e08f4c7c32d4f71b54bda02913000000000000000000000000cef67989ae740cc9c92fa7385f003f84eaafd91500000000000000000000000000000000000000000000000000000000000003e800000000000000000000000000000000000000000000000000000000",
        "nonce": "0x3aa",
        "chainId": "0x2105",
        "authorizationList": [
          {
            "chainId": "0x2105",
            "address": "0x69007702764179f14f51cdce752f4f775d74e139",
            "nonce": "0x3ab",
            "yParity": "0x0",
            "r": "0x464f1a6b6eaa4ea67b160485daaf84e9b833769288f207ed7fbcd9d0ab8fbe",
            "s": "0x612ba39faf8b4505d13530358e69cfccfbc01f32c2f6e94c223485bb584f9d48"
          }
        ]
      },
      "additionalContracts": [],
      "isFixedGasLimit": false
    }
  ],
  "receipts": [
    {
      "status": "0x1",
      "cumulativeGasUsed": "0x1f8251d",
      "logs": [
        {
          "address": "0x833589fcd6edb6e08f4c7c32d4f71b54bda02913",
          "topics": [
            "0x8c5be1e5ebec7d5bd14f71427d1e84f3dd0314c0f7b2291e5b200ac8c7c3b925",
            "0x000000000000000000000000cef67989ae740cc9c92fa7385f003f84eaafd915",
            "0x00000000000000000000000089f4916479c81470ca90737e3cc60e99062d3388"
          ],
          "data": "0x00000000000000000000000000000000000000000000000000000000000003e8",
          "blockHash": "0xae9dc88b5ff6635fa464626abf1c8a66b81e267798f3345b5564cbb76216c658",
          "blockNumber": "0x2c252fe",
          "blockTimestamp": "0x6a0f02df",
          "transactionHash": "0xde1b828b25b5af2b65507d0a6a73768887d5b3867bd1fc2175087200c51012ff",
          "transactionIndex": "0xa9",
          "logIndex": "0x23c",
          "removed": false
        },
        {
          "address": "0x833589fcd6edb6e08f4c7c32d4f71b54bda02913",
          "topics": [
            "0xddf252ad1be2c89b69c2b068fc378daa952ba7f163c4a11628f55a4df523b3ef",
            "0x000000000000000000000000cef67989ae740cc9c92fa7385f003f84eaafd915",
            "0x00000000000000000000000089f4916479c81470ca90737e3cc60e99062d3388"
          ],
          "data": "0x00000000000000000000000000000000000000000000000000000000000003e8",
          "blockHash": "0xae9dc88b5ff6635fa464626abf1c8a66b81e267798f3345b5564cbb76216c658",
          "blockNumber": "0x2c252fe",
          "blockTimestamp": "0x6a0f02df",
          "transactionHash": "0xde1b828b25b5af2b65507d0a6a73768887d5b3867bd1fc2175087200c51012ff",
          "transactionIndex": "0xa9",
          "logIndex": "0x23d",
          "removed": false
        }
      ],
      "logsBloom": "0x00000000000000000000000000000000000000000000000000000000000000000000000000000000000000000000100000000000000000000000000000200000000000000000000000000008000000000000000000080000000000000000000000800000000000000000000000000000000000000000000000040014000000000000000000000000000000000000000000000000000000000000000000000000020000000040000000000000000000000000000000000000000000000000000000000002000000000000000002000000000000000000000000000000000000000010000000000000000002000000000000000000000000000010000000000000",
      "type": "0x4",
      "transactionHash": "0xde1b828b25b5af2b65507d0a6a73768887d5b3867bd1fc2175087200c51012ff",
      "transactionIndex": "0xa9",
      "blockHash": "0xae9dc88b5ff6635fa464626abf1c8a66b81e267798f3345b5564cbb76216c658",
      "blockNumber": "0x2c252fe",
      "gasUsed": "0x160cb",
      "effectiveGasPrice": "0x5b8d80",
      "blobGasUsed": "0x96e4",
      "from": "0xcef67989ae740cc9c92fa7385f003f84eaafd915",
      "to": "0xcef67989ae740cc9c92fa7385f003f84eaafd915",
      "contractAddress": null,
      "daFootprintGasScalar": "0x94",
      "l1BaseFeeScalar": "0x8dd",
      "l1BlobBaseFee": "0x8290c0",
      "l1BlobBaseFeeScalar": "0x101c12",
      "l1Fee": "0xe4ce063c",
      "l1GasPrice": "0x94f3997",
      "l1GasUsed": "0x1051"
    }
  ],
  "libraries": [],
  "pending": [],
  "returns": {},
  "timestamp": 1779368672337,
  "chain": 8453,
  "commit": "2c3b551"
}