{
  "transactions": [
    {
      "hash": "0x72f8805d832b8433bbdb6bbbfc972fe6803a45008e2e0998e88e220152cec18d",
      "transactionType": "CALL",
      "contractName": null,
      "contractAddress": "0xcef67989ae740cc9c92fa7385f003f84eaafd915",
      "function": "executeBatch((address,uint256,bytes)[])",
      "arguments": [
        "[(0x833589fCD6eDb6E08f4c7C32D4f71b54bdA02913, 0, 0x095ea7b300000000000000000000000089f4916479c81470ca90737e3cc60e99062d338800000000000000000000000000000000000000000000000000000000000003e8), (0x89f4916479c81470CA90737e3cc60e99062d3388, 0, 0x7372c2b5000000000000000000000000833589fcd6edb6e08f4c7c32d4f71b54bda02913000000000000000000000000cef67989ae740cc9c92fa7385f003f84eaafd91500000000000000000000000000000000000000000000000000000000000003e8)]"
      ],
      "transaction": {
        "from": "0xcef67989ae740cc9c92fa7385f003f84eaafd915",
        "to": "0xcef67989ae740cc9c92fa7385f003f84eaafd915",
        "gas": "0x203f5",
        "value": "0x0",
        "input": "0x34fcd5be0000000000000000000000000000000000000000000000000000000000000020000000000000000000000000000000000000000000000000000000000000000200000000000000000000000000000000000000000000000000000000000000400000000000000000000000000000000000000000000000000000000000000120000000000000000000000000833589fcd6edb6e08f4c7c32d4f71b54bda02913000000000000000000000000000000000000000000000000000000000000000000000000000000000000000000000000000000000000000000000000000000600000000000000000000000000000000000000000000000000000000000000044095ea7b300000000000000000000000089f4916479c81470ca90737e3cc60e99062d338800000000000000000000000000000000000000000000000000000000000003e80000000000000000000000000000000000000000000000000000000000000000000000000000000089f4916479c81470ca90737e3cc60e99062d33880000000000000000000000000000000000000000000000000000000000000000000000000000000000000000000000000000000000000000000000000000006000000000000000000000000000000000000000000000000000000000000000647372c2b5000000000000000000000000833589fcd6edb6e08f4c7c32d4f71b54bda02913000000000000000000000000cef67989ae740cc9c92fa7385f003f84eaafd91500000000000000000000000000000000000000000000000000000000000003e800000000000000000000000000000000000000000000000000000000",
        "nonce": "0x3b3",
        "chainId": "0x2105",
        "authorizationList": [
          {
            "chainId": "0x2105",
            "address": "0x69007702764179f14f51cdce752f4f775d74e139",
            "nonce": "0x3b4",
            "yParity": "0x0",
            "r": "0x4d3969ca381e386520d271fbdd3d8226a93237fc0388292545eef2dceb569596",
            "s": "0x63aee0ba326cec2f100030db84180a81ff458c333a2df195e0d199f582158e9"
          }
        ]
      },
      "additionalContracts": [],
      "isFixedGasLimit": false
    }
  ],
  "receipts": [
    {
      "status": "0x1",
      "cumulativeGasUsed": "0xa6a61e",
      "logs": [
        {
          "address": "0x833589fcd6edb6e08f4c7c32d4f71b54bda02913",
          "topics": [
            "0x8c5be1e5ebec7d5bd14f71427d1e84f3dd0314c0f7b2291e5b200ac8c7c3b925",
            "0x000000000000000000000000cef67989ae740cc9c92fa7385f003f84eaafd915",
            "0x00000000000000000000000089f4916479c81470ca90737e3cc60e99062d3388"
          ],
          "data": "0x00000000000000000000000000000000000000000000000000000000000003e8",
          "blockHash": "0x27429b4943bc08e2d175ee53649de2defa258aea3ca46496945f7c8e2f49d7a4",
          "blockNumber": "0x2c25759",
          "blockTimestamp": "0x6a0f0b95",
          "transactionHash": "0x72f8805d832b8433bbdb6bbbfc972fe6803a45008e2e0998e88e220152cec18d",
          "transactionIndex": "0x61",
          "logIndex": "0x12e",
          "removed": false
        },
        {
          "address": "0x833589fcd6edb6e08f4c7c32d4f71b54bda02913",
          "topics": [
            "0xddf252ad1be2c89b69c2b068fc378daa952ba7f163c4a11628f55a4df523b3ef",
            "0x000000000000000000000000cef67989ae740cc9c92fa7385f003f84eaafd915",
            "0x00000000000000000000000089f4916479c81470ca90737e3cc60e99062d3388"
          ],
          "data": "0x00000000000000000000000000000000000000000000000000000000000003e8",
          "blockHash": "0x27429b4943bc08e2d175ee53649de2defa258aea3ca46496945f7c8e2f49d7a4",
          "blockNumber": "0x2c25759",
          "blockTimestamp": "0x6a0f0b95",
          "transactionHash": "0x72f8805d832b8433bbdb6bbbfc972fe6803a45008e2e0998e88e220152cec18d",
          "transactionIndex": "0x61",
          "logIndex": "0x12f",
          "removed": false
        }
      ],
      "logsBloom": "0x00000000000000000000000000000000000000000000000000000000000000000000000000000000000000000000100000000000000000000000000000200000000000000000000000000008000000000000000000080000000000000000000000800000000000000000000000000000000000000000000000040014000000000000000000000000000000000000000000000000000000000000000000000000020000000040000000000000000000000000000000000000000000000000000000000002000000000000000002000000000000000000000000000000000000000010000000000000000002000000000000000000000000000010000000000000",
      "type": "0x4",
      "transactionHash": "0x72f8805d832b8433bbdb6bbbfc972fe6803a45008e2e0998e88e220152cec18d",
      "transactionIndex": "0x61",
      "blockHash": "0x27429b4943bc08e2d175ee53649de2defa258aea3ca46496945f7c8e2f49d7a4",
      "blockNumber": "0x2c25759",
      "gasUsed": "0x160cb",
      "effectiveGasPrice": "0x5b8d80",
      "blobGasUsed": "0x96e4",
      "from": "0xcef67989ae740cc9c92fa7385f003f84eaafd915",
      "to": "0xcef67989ae740cc9c92fa7385f003f84eaafd915",
      "contractAddress": null,
      "daFootprintGasScalar": "0x94",
      "l1BaseFeeScalar": "0x8dd",
      "l1BlobBaseFee": "0x87088a",
      "l1BlobBaseFeeScalar": "0x101c12",
      "l1Fee": "0xe9fed1e4",
      "l1GasPrice": "0x9454ee7",
      "l1GasUsed": "0x105e"
    }
  ],
  "libraries": [],
  "pending": [],
  "returns": {},
  "timestamp": 1779370901172,
  "chain": 8453,
  "commit": "2c3b551"
}