{
  "transactions": [
    {
      "hash": "0xa077a3b74364717b6ef2757284a38f3ee128bc86354eca753346be9b180e1cb5",
      "transactionType": "CALL",
      "contractName": null,
      "contractAddress": "0xcef67989ae740cc9c92fa7385f003f84eaafd915",
      "function": "execute((address,uint256,bytes)[],bytes)",
      "arguments": [
        "[(0x833589fCD6eDb6E08f4c7C32D4f71b54bdA02913, 0, 0x095ea7b300000000000000000000000089f4916479c81470ca90737e3cc60e99062d338800000000000000000000000000000000000000000000000000000000000003e8), (0x89f4916479c81470CA90737e3cc60e99062d3388, 0, 0x7372c2b5000000000000000000000000833589fcd6edb6e08f4c7c32d4f71b54bda02913000000000000000000000000cef67989ae740cc9c92fa7385f003f84eaafd91500000000000000000000000000000000000000000000000000000000000003e8)]",
        "0xea643d597e8ec34115f3d815a21a701bac69b3247016cf1097ed098200e46b39699a50a3b163ebeca9b7ad8bfaeb3d3b94f9f96f5ee34fadbe9b4c4d428426f71c"
      ],
      "transaction": {
        "from": "0x19ef7532c4b4750da2dc328e950ac332d50626ce",
        "to": "0xcef67989ae740cc9c92fa7385f003f84eaafd915",
        "gas": "0xddc6",
        "value": "0x0",
        "input": "0x6171d1c900000000000000000000000000000000000000000000000000000000000000400000000000000000000000000000000000000000000000000000000000000280000000000000000000000000000000000000000000000000000000000000000200000000000000000000000000000000000000000000000000000000000000400000000000000000000000000000000000000000000000000000000000000120000000000000000000000000833589fcd6edb6e08f4c7c32d4f71b54bda02913000000000000000000000000000000000000000000000000000000000000000000000000000000000000000000000000000000000000000000000000000000600000000000000000000000000000000000000000000000000000000000000044095ea7b300000000000000000000000089f4916479c81470ca90737e3cc60e99062d338800000000000000000000000000000000000000000000000000000000000003e80000000000000000000000000000000000000000000000000000000000000000000000000000000089f4916479c81470ca90737e3cc60e99062d33880000000000000000000000000000000000000000000000000000000000000000000000000000000000000000000000000000000000000000000000000000006000000000000000000000000000000000000000000000000000000000000000647372c2b5000000000000000000000000833589fcd6edb6e08f4c7c32d4f71b54bda02913000000000000000000000000cef67989ae740cc9c92fa7385f003f84eaafd91500000000000000000000000000000000000000000000000000000000000003e8000000000000000000000000000000000000000000000000000000000000000000000000000000000000000000000000000000000000000000000041ea643d597e8ec34115f3d815a21a701bac69b3247016cf1097ed098200e46b39699a50a3b163ebeca9b7ad8bfaeb3d3b94f9f96f5ee34fadbe9b4c4d428426f71c00000000000000000000000000000000000000000000000000000000000000",
        "nonce": "0x2",
        "chainId": "0x2105",
        "authorizationList": [
          {
            "chainId": "0x2105",
            "address": "0x75c9ef2bf8154182d8148eeefbfc927f67f50faf",
            "nonce": "0x3bd",
            "yParity": "0x1",
            "r": "0x3f482331b7fbcbf46bdfb10b087d77ca84ffe9208660de9a27a7f328b838ed0c",
            "s": "0x5e5b4f3ad0b183f590ac23ceb12c0560c7f937881ca72024f4670b081acb7e88"
          }
        ]
      },
      "additionalContracts": [],
      "isFixedGasLimit": false
    }
  ],
  "receipts": [
    {
      "status": "0x1",
      "cumulativeGasUsed": "0x21ff55d",
      "logs": [],
      "logsBloom": "0x00000000000000000000000000000000000000000000000000000000000000000000000000000000000000000000000000000000000000000000000000000000000000000000000000000000000000000000000000000000000000000000000000000000000000000000000000000000000000000000000000000000000000000000000000000000000000000000000000000000000000000000000000000000000000000000000000000000000000000000000000000000000000000000000000000000000000000000000000000000000000000000000000000000000000000000000000000000000000000000000000000000000000000000000000000000",
      "type": "0x4",
      "transactionHash": "0xa077a3b74364717b6ef2757284a38f3ee128bc86354eca753346be9b180e1cb5",
      "transactionIndex": "0xf7",
      "blockHash": "0x5a0118c8dd566afe5adef7b9580ade24f385ee485d8946360a73f2d24cab32c0",
      "blockNumber": "0x2c5a93c",
      "gasUsed": "0xa090",
      "effectiveGasPrice": "0x5b8d80",
      "blobGasUsed": "0xbd0c",
      "from": "0x19ef7532c4b4750da2dc328e950ac332d50626ce",
      "to": "0xcef67989ae740cc9c92fa7385f003f84eaafd915",
      "contractAddress": null,
      "daFootprintGasScalar": "0x94",
      "l1BaseFeeScalar": "0x8dd",
      "l1BlobBaseFee": "0x125b079",
      "l1BlobBaseFeeScalar": "0x101c12",
      "l1Fee": "0x277e10315",
      "l1GasPrice": "0x13b466f1",
      "l1GasUsed": "0x147f"
    }
  ],
  "libraries": [],
  "pending": [],
  "returns": {},
  "timestamp": 1779806044461,
  "chain": 8453,
  "commit": "58c5c3b"
}