{
  "transactions": [
    {
      "hash": "0x4e4a8ab8a19fe2b0cc815fd6dad61e4aea494fd08b626c9a46852b5a016a52a6",
      "transactionType": "CALL",
      "contractName": null,
      "contractAddress": "0xcef67989ae740cc9c92fa7385f003f84eaafd915",
      "function": "execute((address,uint256,bytes)[],bytes)",
      "arguments": [
        "[(0x833589fCD6eDb6E08f4c7C32D4f71b54bdA02913, 0, 0x095ea7b300000000000000000000000089f4916479c81470ca90737e3cc60e99062d338800000000000000000000000000000000000000000000000000000000000003e8), (0x89f4916479c81470CA90737e3cc60e99062d3388, 0, 0x7372c2b5000000000000000000000000833589fcd6edb6e08f4c7c32d4f71b54bda02913000000000000000000000000cef67989ae740cc9c92fa7385f003f84eaafd91500000000000000000000000000000000000000000000000000000000000003e8)]",
        "0xea643d597e8ec34115f3d815a21a701bac69b3247016cf1097ed098200e46b39699a50a3b163ebeca9b7ad8bfaeb3d3b94f9f96f5ee34fadbe9b4c4d428426f71c"
      ],
      "transaction": {
        "from": "0x19ef7532c4b4750da2dc328e950ac332d50626ce",
        "to": "0xcef67989ae740cc9c92fa7385f003f84eaafd915",
        "gas": "0x2b4d0",
        "value": "0x0",
        "input": "0x6171d1c900000000000000000000000000000000000000000000000000000000000000400000000000000000000000000000000000000000000000000000000000000280000000000000000000000000000000000000000000000000000000000000000200000000000000000000000000000000000000000000000000000000000000400000000000000000000000000000000000000000000000000000000000000120000000000000000000000000833589fcd6edb6e08f4c7c32d4f71b54bda02913000000000000000000000000000000000000000000000000000000000000000000000000000000000000000000000000000000000000000000000000000000600000000000000000000000000000000000000000000000000000000000000044095ea7b300000000000000000000000089f4916479c81470ca90737e3cc60e99062d338800000000000000000000000000000000000000000000000000000000000003e80000000000000000000000000000000000000000000000000000000000000000000000000000000089f4916479c81470ca90737e3cc60e99062d33880000000000000000000000000000000000000000000000000000000000000000000000000000000000000000000000000000000000000000000000000000006000000000000000000000000000000000000000000000000000000000000000647372c2b5000000000000000000000000833589fcd6edb6e08f4c7c32d4f71b54bda02913000000000000000000000000cef67989ae740cc9c92fa7385f003f84eaafd91500000000000000000000000000000000000000000000000000000000000003e8000000000000000000000000000000000000000000000000000000000000000000000000000000000000000000000000000000000000000000000041ea643d597e8ec34115f3d815a21a701bac69b3247016cf1097ed098200e46b39699a50a3b163ebeca9b7ad8bfaeb3d3b94f9f96f5ee34fadbe9b4c4d428426f71c00000000000000000000000000000000000000000000000000000000000000",
        "nonce": "0x4",
        "chainId": "0x2105",
        "authorizationList": [
          {
            "chainId": "0x2105",
            "address": "0x03f31df3f44ebf7b60d2e0c284b3923b4ff3494a",
            "nonce": "0x3c0",
            "yParity": "0x1",
            "r": "0x7a901f503e721529640d18bad100e2c5cf11f4fe87d3b2b41574e1c90eddada9",
            "s": "0x2b8c2da05a18ef6bb93145aae6eef39149fe2d4ae7deb4cdfd6d4b0277c74037"
          }
        ]
      },
      "additionalContracts": [],
      "isFixedGasLimit": false
    }
  ],
  "receipts": [
    {
      "status": "0x1",
      "cumulativeGasUsed": "0x2dbae68",
      "logs": [
        {
          "address": "0x833589fcd6edb6e08f4c7c32d4f71b54bda02913",
          "topics": [
            "0x8c5be1e5ebec7d5bd14f71427d1e84f3dd0314c0f7b2291e5b200ac8c7c3b925",
            "0x000000000000000000000000cef67989ae740cc9c92fa7385f003f84eaafd915",
            "0x00000000000000000000000089f4916479c81470ca90737e3cc60e99062d3388"
          ],
          "data": "0x00000000000000000000000000000000000000000000000000000000000003e8",
          "blockHash": "0x1a70f371b43a8b270b3e1f84af4be98a59717e698bb938f8f3db70982e32232e",
          "blockNumber": "0x2c5aa00",
          "blockTimestamp": "0x6a15b0e3",
          "transactionHash": "0x4e4a8ab8a19fe2b0cc815fd6dad61e4aea494fd08b626c9a46852b5a016a52a6",
          "transactionIndex": "0x111",
          "logIndex": "0x4ee",
          "removed": false
        },
        {
          "address": "0xcef67989ae740cc9c92fa7385f003f84eaafd915",
          "topics": [
            "0xed7e8f919df9cc0d0ad8b4057d084ebf319b630564d5da283e14751adc931f3a",
            "0x00000000000000000000000019ef7532c4b4750da2dc328e950ac332d50626ce",
            "0x000000000000000000000000833589fcd6edb6e08f4c7c32d4f71b54bda02913"
          ],
          "data": "0x000000000000000000000000000000000000000000000000000000000000000000000000000000000000000000000000000000000000000000000000000000400000000000000000000000000000000000000000000000000000000000000044095ea7b300000000000000000000000089f4916479c81470ca90737e3cc60e99062d338800000000000000000000000000000000000000000000000000000000000003e800000000000000000000000000000000000000000000000000000000",
          "blockHash": "0x1a70f371b43a8b270b3e1f84af4be98a59717e698bb938f8f3db70982e32232e",
          "blockNumber": "0x2c5aa00",
          "blockTimestamp": "0x6a15b0e3",
          "transactionHash": "0x4e4a8ab8a19fe2b0cc815fd6dad61e4aea494fd08b626c9a46852b5a016a52a6",
          "transactionIndex": "0x111",
          "logIndex": "0x4ef",
          "removed": false
        },
        {
          "address": "0x833589fcd6edb6e08f4c7c32d4f71b54bda02913",
          "topics": [
            "0xddf252ad1be2c89b69c2b068fc378daa952ba7f163c4a11628f55a4df523b3ef",
            "0x000000000000000000000000cef67989ae740cc9c92fa7385f003f84eaafd915",
            "0x00000000000000000000000089f4916479c81470ca90737e3cc60e99062d3388"
          ],
          "data": "0x00000000000000000000000000000000000000000000000000000000000003e8",
          "blockHash": "0x1a70f371b43a8b270b3e1f84af4be98a59717e698bb938f8f3db70982e32232e",
          "blockNumber": "0x2c5aa00",
          "blockTimestamp": "0x6a15b0e3",
          "transactionHash": "0x4e4a8ab8a19fe2b0cc815fd6dad61e4aea494fd08b626c9a46852b5a016a52a6",
          "transactionIndex": "0x111",
          "logIndex": "0x4f0",
          "removed": false
        },
        {
          "address": "0xcef67989ae740cc9c92fa7385f003f84eaafd915",
          "topics": [
            "0xed7e8f919df9cc0d0ad8b4057d084ebf319b630564d5da283e14751adc931f3a",
            "0x00000000000000000000000019ef7532c4b4750da2dc328e950ac332d50626ce",
            "0x00000000000000000000000089f4916479c81470ca90737e3cc60e99062d3388"
          ],
          "data": "0x0000000000000000000000000000000000000000000000000000000000000000000000000000000000000000000000000000000000000000000000000000004000000000000000000000000000000000000000000000000000000000000000647372c2b5000000000000000000000000833589fcd6edb6e08f4c7c32d4f71b54bda02913000000000000000000000000cef67989ae740cc9c92fa7385f003f84eaafd91500000000000000000000000000000000000000000000000000000000000003e800000000000000000000000000000000000000000000000000000000",
          "blockHash": "0x1a70f371b43a8b270b3e1f84af4be98a59717e698bb938f8f3db70982e32232e",
          "blockNumber": "0x2c5aa00",
          "blockTimestamp": "0x6a15b0e3",
          "transactionHash": "0x4e4a8ab8a19fe2b0cc815fd6dad61e4aea494fd08b626c9a46852b5a016a52a6",
          "transactionIndex": "0x111",
          "logIndex": "0x4f1",
          "removed": false
        },
        {
          "address": "0xcef67989ae740cc9c92fa7385f003f84eaafd915",
          "topics": [
            "0x280bb3599696acbf79fb8ffcde81a57337b52500f789600fbb1cff9b4cbaba39",
            "0x0000000000000000000000000000000000000000000000000000000000000000"
          ],
          "data": "0x0000000000000000000000000000000000000000000000000000000000000020000000000000000000000000000000000000000000000000000000000000000200000000000000000000000000000000000000000000000000000000000000400000000000000000000000000000000000000000000000000000000000000120000000000000000000000000833589fcd6edb6e08f4c7c32d4f71b54bda02913000000000000000000000000000000000000000000000000000000000000000000000000000000000000000000000000000000000000000000000000000000600000000000000000000000000000000000000000000000000000000000000044095ea7b300000000000000000000000089f4916479c81470ca90737e3cc60e99062d338800000000000000000000000000000000000000000000000000000000000003e80000000000000000000000000000000000000000000000000000000000000000000000000000000089f4916479c81470ca90737e3cc60e99062d33880000000000000000000000000000000000000000000000000000000000000000000000000000000000000000000000000000000000000000000000000000006000000000000000000000000000000000000000000000000000000000000000647372c2b5000000000000000000000000833589fcd6edb6e08f4c7c32d4f71b54bda02913000000000000000000000000cef67989ae740cc9c92fa7385f003f84eaafd91500000000000000000000000000000000000000000000000000000000000003e800000000000000000000000000000000000000000000000000000000",
          "blockHash": "0x1a70f371b43a8b270b3e1f84af4be98a59717e698bb938f8f3db70982e32232e",
          "blockNumber": "0x2c5aa00",
          "blockTimestamp": "0x6a15b0e3",
          "transactionHash": "0x4e4a8ab8a19fe2b0cc815fd6dad61e4aea494fd08b626c9a46852b5a016a52a6",
          "transactionIndex": "0x111",
          "logIndex": "0x4f2",
          "removed": false
        }
      ],
      "logsBloom": "0x00000040000000000000000040000000000000002000000000000000000000000000000000000000000000000000100000000000000000000000000000200000000000000000040000001008000000000000000000080000000000000000000000800000020000000000200000000800010000000000000000040014000000000000000000000000400000000000000000000000000000000000000020000000020020000040200000000000000000000000000000000000000000000000040000000002000000000200000002000000102000000000000000000000000020000010000000000000000002000000000000000000000000000010000000000000",
      "type": "0x4",
      "transactionHash": "0x4e4a8ab8a19fe2b0cc815fd6dad61e4aea494fd08b626c9a46852b5a016a52a6",
      "transactionIndex": "0x111",
      "blockHash": "0x1a70f371b43a8b270b3e1f84af4be98a59717e698bb938f8f3db70982e32232e",
      "blockNumber": "0x2c5aa00",
      "gasUsed": "0x1f596",
      "effectiveGasPrice": "0x5b8d80",
      "blobGasUsed": "0xbda0",
      "from": "0x19ef7532c4b4750da2dc328e950ac332d50626ce",
      "to": "0xcef67989ae740cc9c92fa7385f003f84eaafd915",
      "contractAddress": null,
      "daFootprintGasScalar": "0x94",
      "l1BaseFeeScalar": "0x8dd",
      "l1BlobBaseFee": "0x199a6aa",
      "l1BlobBaseFeeScalar": "0x101c12",
      "l1Fee": "0x3c1a0ac6c",
      "l1GasPrice": "0x220503c1",
      "l1GasUsed": "0x148d"
    }
  ],
  "libraries": [],
  "pending": [],
  "returns": {},
  "timestamp": 1779806436439,
  "chain": 8453,
  "commit": "58c5c3b"
}