{
  "transactions": [
    {
      "hash": null,
      "transactionType": "CALL",
      "contractName": null,
      "contractAddress": "0xcef67989ae740cc9c92fa7385f003f84eaafd915",
      "function": "execute((address,uint256,bytes)[],uint256,bytes)",
      "arguments": [
        "[(0x833589fCD6eDb6E08f4c7C32D4f71b54bdA02913, 0, 0x095ea7b300000000000000000000000089f4916479c81470ca90737e3cc60e99062d338800000000000000000000000000000000000000000000000000000000000003e8), (0x89f4916479c81470CA90737e3cc60e99062d3388, 0, 0x7372c2b5000000000000000000000000833589fcd6edb6e08f4c7c32d4f71b54bda02913000000000000000000000000cef67989ae740cc9c92fa7385f003f84eaafd91500000000000000000000000000000000000000000000000000000000000003e8)]",
        "13",
        "0x7eba6ac7b9bcdb5d921a94c43b6e2b14db42be97a7601fe52a7c1a2156243ba4058a06128d71d105447e3c6a05446b2293bb95b3d69253d83d9ea56cef8eacc71c"
      ],
      "transaction": {
        "from": "0x19ef7532c4b4750da2dc328e950ac332d50626ce",
        "to": "0xcef67989ae740cc9c92fa7385f003f84eaafd915",
        "gas": "0x26c86",
        "value": "0x0",
        "input": "0x143ca9b00000000000000000000000000000000000000000000000000000000000000060000000000000000000000000000000000000000000000000000000000000000d00000000000000000000000000000000000000000000000000000000000002a0000000000000000000000000000000000000000000000000000000000000000200000000000000000000000000000000000000000000000000000000000000400000000000000000000000000000000000000000000000000000000000000120000000000000000000000000833589fcd6edb6e08f4c7c32d4f71b54bda02913000000000000000000000000000000000000000000000000000000000000000000000000000000000000000000000000000000000000000000000000000000600000000000000000000000000000000000000000000000000000000000000044095ea7b300000000000000000000000089f4916479c81470ca90737e3cc60e99062d338800000000000000000000000000000000000000000000000000000000000003e80000000000000000000000000000000000000000000000000000000000000000000000000000000089f4916479c81470ca90737e3cc60e99062d33880000000000000000000000000000000000000000000000000000000000000000000000000000000000000000000000000000000000000000000000000000006000000000000000000000000000000000000000000000000000000000000000647372c2b5000000000000000000000000833589fcd6edb6e08f4c7c32d4f71b54bda02913000000000000000000000000cef67989ae740cc9c92fa7385f003f84eaafd91500000000000000000000000000000000000000000000000000000000000003e80000000000000000000000000000000000000000000000000000000000000000000000000000000000000000000000000000000000000000000000417eba6ac7b9bcdb5d921a94c43b6e2b14db42be97a7601fe52a7c1a2156243ba4058a06128d71d105447e3c6a05446b2293bb95b3d69253d83d9ea56cef8eacc71c00000000000000000000000000000000000000000000000000000000000000",
        "nonce": "0x6",
        "chainId": "0x2105",
        "authorizationList": [
          {
            "chainId": "0x2105",
            "address": "0x188adb39fe306a4a6748712894d652fe791ea428",
            "nonce": "0x3c4",
            "yParity": "0x1",
            "r": "0x2db033bc11df8d725df8ea117fc9424b5b08ea9eee357ee96f2803cbf4effc07",
            "s": "0x19965c7c255bb903ce5db2e874965cf38380228bcae6e70b467ed5810c24051d"
          }
        ]
      },
      "additionalContracts": [],
      "isFixedGasLimit": false
    }
  ],
  "receipts": [],
  "libraries": [],
  "pending": [],
  "returns": {},
  "timestamp": 1779874749922,
  "chain": 8453,
  "commit": "7ea7ec2"
}