{
  "transactions": [
    {
      "hash": "0x009f0204fcf50881c8c75b4c1ed02381c22a23a72cd636df4f1920c6c3e4cd6e",
      "transactionType": "CALL",
      "contractName": null,
      "contractAddress": "0xcef67989ae740cc9c92fa7385f003f84eaafd915",
      "function": "execute((address,uint256,bytes)[],uint256,bytes)",
      "arguments": [
        "[(0x833589fCD6eDb6E08f4c7C32D4f71b54bdA02913, 0, 0x095ea7b300000000000000000000000089f4916479c81470ca90737e3cc60e99062d338800000000000000000000000000000000000000000000000000000000000003e8), (0x89f4916479c81470CA90737e3cc60e99062d3388, 0, 0x7372c2b5000000000000000000000000833589fcd6edb6e08f4c7c32d4f71b54bda02913000000000000000000000000cef67989ae740cc9c92fa7385f003f84eaafd91500000000000000000000000000000000000000000000000000000000000003e8)]",
        "13",
        "0x7eba6ac7b9bcdb5d921a94c43b6e2b14db42be97a7601fe52a7c1a2156243ba4058a06128d71d105447e3c6a05446b2293bb95b3d69253d83d9ea56cef8eacc71c"
      ],
      "transaction": {
        "from": "0x19ef7532c4b4750da2dc328e950ac332d50626ce",
        "to": "0xcef67989ae740cc9c92fa7385f003f84eaafd915",
        "gas": "0x26c86",
        "value": "0x0",
        "input": "0x143ca9b00000000000000000000000000000000000000000000000000000000000000060000000000000000000000000000000000000000000000000000000000000000d00000000000000000000000000000000000000000000000000000000000002a0000000000000000000000000000000000000000000000000000000000000000200000000000000000000000000000000000000000000000000000000000000400000000000000000000000000000000000000000000000000000000000000120000000000000000000000000833589fcd6edb6e08f4c7c32d4f71b54bda02913000000000000000000000000000000000000000000000000000000000000000000000000000000000000000000000000000000000000000000000000000000600000000000000000000000000000000000000000000000000000000000000044095ea7b300000000000000000000000089f4916479c81470ca90737e3cc60e99062d338800000000000000000000000000000000000000000000000000000000000003e80000000000000000000000000000000000000000000000000000000000000000000000000000000089f4916479c81470ca90737e3cc60e99062d33880000000000000000000000000000000000000000000000000000000000000000000000000000000000000000000000000000000000000000000000000000006000000000000000000000000000000000000000000000000000000000000000647372c2b5000000000000000000000000833589fcd6edb6e08f4c7c32d4f71b54bda02913000000000000000000000000cef67989ae740cc9c92fa7385f003f84eaafd91500000000000000000000000000000000000000000000000000000000000003e80000000000000000000000000000000000000000000000000000000000000000000000000000000000000000000000000000000000000000000000417eba6ac7b9bcdb5d921a94c43b6e2b14db42be97a7601fe52a7c1a2156243ba4058a06128d71d105447e3c6a05446b2293bb95b3d69253d83d9ea56cef8eacc71c00000000000000000000000000000000000000000000000000000000000000",
        "nonce": "0x6",
        "chainId": "0x2105",
        "authorizationList": [
          {
            "chainId": "0x2105",
            "address": "0x188adb39fe306a4a6748712894d652fe791ea428",
            "nonce": "0x3c4",
            "yParity": "0x1",
            "r": "0x2db033bc11df8d725df8ea117fc9424b5b08ea9eee357ee96f2803cbf4effc07",
            "s": "0x19965c7c255bb903ce5db2e874965cf38380228bcae6e70b467ed5810c24051d"
          }
        ]
      },
      "additionalContracts": [],
      "isFixedGasLimit": false
    }
  ],
  "receipts": [
    {
      "status": "0x1",
      "cumulativeGasUsed": "0x5782bc",
      "logs": [
        {
          "address": "0x833589fcd6edb6e08f4c7c32d4f71b54bda02913",
          "topics": [
            "0x8c5be1e5ebec7d5bd14f71427d1e84f3dd0314c0f7b2291e5b200ac8c7c3b925",
            "0x000000000000000000000000cef67989ae740cc9c92fa7385f003f84eaafd915",
            "0x00000000000000000000000089f4916479c81470ca90737e3cc60e99062d3388"
          ],
          "data": "0x00000000000000000000000000000000000000000000000000000000000003e8",
          "blockHash": "0x0000000000000000000000000000000000000000000000000000000000000000",
          "blockNumber": "0x2c62f71",
          "blockTimestamp": "0x6a16bbc5",
          "transactionHash": "0x009f0204fcf50881c8c75b4c1ed02381c22a23a72cd636df4f1920c6c3e4cd6e",
          "transactionIndex": "0x29",
          "logIndex": "0x93",
          "removed": false
        },
        {
          "address": "0xcef67989ae740cc9c92fa7385f003f84eaafd915",
          "topics": [
            "0xed7e8f919df9cc0d0ad8b4057d084ebf319b630564d5da283e14751adc931f3a",
            "0x00000000000000000000000019ef7532c4b4750da2dc328e950ac332d50626ce",
            "0x000000000000000000000000833589fcd6edb6e08f4c7c32d4f71b54bda02913"
          ],
          "data": "0x000000000000000000000000000000000000000000000000000000000000000000000000000000000000000000000000000000000000000000000000000000400000000000000000000000000000000000000000000000000000000000000044095ea7b300000000000000000000000089f4916479c81470ca90737e3cc60e99062d338800000000000000000000000000000000000000000000000000000000000003e800000000000000000000000000000000000000000000000000000000",
          "blockHash": "0x0000000000000000000000000000000000000000000000000000000000000000",
          "blockNumber": "0x2c62f71",
          "blockTimestamp": "0x6a16bbc5",
          "transactionHash": "0x009f0204fcf50881c8c75b4c1ed02381c22a23a72cd636df4f1920c6c3e4cd6e",
          "transactionIndex": "0x29",
          "logIndex": "0x94",
          "removed": false
        },
        {
          "address": "0x833589fcd6edb6e08f4c7c32d4f71b54bda02913",
          "topics": [
            "0xddf252ad1be2c89b69c2b068fc378daa952ba7f163c4a11628f55a4df523b3ef",
            "0x000000000000000000000000cef67989ae740cc9c92fa7385f003f84eaafd915",
            "0x00000000000000000000000089f4916479c81470ca90737e3cc60e99062d3388"
          ],
          "data": "0x00000000000000000000000000000000000000000000000000000000000003e8",
          "blockHash": "0x0000000000000000000000000000000000000000000000000000000000000000",
          "blockNumber": "0x2c62f71",
          "blockTimestamp": "0x6a16bbc5",
          "transactionHash": "0x009f0204fcf50881c8c75b4c1ed02381c22a23a72cd636df4f1920c6c3e4cd6e",
          "transactionIndex": "0x29",
          "logIndex": "0x95",
          "removed": false
        },
        {
          "address": "0xcef67989ae740cc9c92fa7385f003f84eaafd915",
          "topics": [
            "0xed7e8f919df9cc0d0ad8b4057d084ebf319b630564d5da283e14751adc931f3a",
            "0x00000000000000000000000019ef7532c4b4750da2dc328e950ac332d50626ce",
            "0x00000000000000000000000089f4916479c81470ca90737e3cc60e99062d3388"
          ],
          "data": "0x0000000000000000000000000000000000000000000000000000000000000000000000000000000000000000000000000000000000000000000000000000004000000000000000000000000000000000000000000000000000000000000000647372c2b5000000000000000000000000833589fcd6edb6e08f4c7c32d4f71b54bda02913000000000000000000000000cef67989ae740cc9c92fa7385f003f84eaafd91500000000000000000000000000000000000000000000000000000000000003e800000000000000000000000000000000000000000000000000000000",
          "blockHash": "0x0000000000000000000000000000000000000000000000000000000000000000",
          "blockNumber": "0x2c62f71",
          "blockTimestamp": "0x6a16bbc5",
          "transactionHash": "0x009f0204fcf50881c8c75b4c1ed02381c22a23a72cd636df4f1920c6c3e4cd6e",
          "transactionIndex": "0x29",
          "logIndex": "0x96",
          "removed": false
        },
        {
          "address": "0xcef67989ae740cc9c92fa7385f003f84eaafd915",
          "topics": [
            "0x280bb3599696acbf79fb8ffcde81a57337b52500f789600fbb1cff9b4cbaba39",
            "0x000000000000000000000000000000000000000000000000000000000000000d"
          ],
          "data": "0x0000000000000000000000000000000000000000000000000000000000000020000000000000000000000000000000000000000000000000000000000000000200000000000000000000000000000000000000000000000000000000000000400000000000000000000000000000000000000000000000000000000000000120000000000000000000000000833589fcd6edb6e08f4c7c32d4f71b54bda02913000000000000000000000000000000000000000000000000000000000000000000000000000000000000000000000000000000000000000000000000000000600000000000000000000000000000000000000000000000000000000000000044095ea7b300000000000000000000000089f4916479c81470ca90737e3cc60e99062d338800000000000000000000000000000000000000000000000000000000000003e80000000000000000000000000000000000000000000000000000000000000000000000000000000089f4916479c81470ca90737e3cc60e99062d33880000000000000000000000000000000000000000000000000000000000000000000000000000000000000000000000000000000000000000000000000000006000000000000000000000000000000000000000000000000000000000000000647372c2b5000000000000000000000000833589fcd6edb6e08f4c7c32d4f71b54bda02913000000000000000000000000cef67989ae740cc9c92fa7385f003f84eaafd91500000000000000000000000000000000000000000000000000000000000003e800000000000000000000000000000000000000000000000000000000",
          "blockHash": "0x0000000000000000000000000000000000000000000000000000000000000000",
          "blockNumber": "0x2c62f71",
          "blockTimestamp": "0x6a16bbc5",
          "transactionHash": "0x009f0204fcf50881c8c75b4c1ed02381c22a23a72cd636df4f1920c6c3e4cd6e",
          "transactionIndex": "0x29",
          "logIndex": "0x97",
          "removed": false
        }
      ],
      "logsBloom": "0x00000040000000000040000040000000000000002000000000000000000000000000000000000000000000000000100000000000000000000000000000200000000000000000040000001008000000000002000000080000000000000000000000800000000000000000200000000000010000000000000000040014000000000000000000000000400000000000000000000000000000000000000020000000020020000040200000000000000000000000000000000000000000000000040000000002000000000200000002000000102000000000000000000000000000020010000000000000000002000000000000000000000000000010000000000000",
      "type": "0x4",
      "transactionHash": "0x009f0204fcf50881c8c75b4c1ed02381c22a23a72cd636df4f1920c6c3e4cd6e",
      "transactionIndex": "0x29",
      "blockHash": "0x0000000000000000000000000000000000000000000000000000000000000000",
      "blockNumber": "0x2c62f71",
      "gasUsed": "0x1c140",
      "effectiveGasPrice": "0x5b8d80",
      "blobGasUsed": "0xc3fc",
      "from": "0x19ef7532c4b4750da2dc328e950ac332d50626ce",
      "to": "0xcef67989ae740cc9c92fa7385f003f84eaafd915",
      "contractAddress": null,
      "daFootprintGasScalar": "0x94",
      "l1BaseFeeScalar": "0x8dd",
      "l1BlobBaseFee": "0x977fbb",
      "l1BlobBaseFeeScalar": "0x101c12",
      "l1Fee": "0x73dbd3c5",
      "l1GasPrice": "0xa6ae92e",
      "l1GasUsed": "0x153b"
    }
  ],
  "libraries": [],
  "pending": [],
  "returns": {},
  "timestamp": 1779874756577,
  "chain": 8453,
  "commit": "7ea7ec2"
}