{
  "transactions": [
    {
      "hash": "0xc3f12e0e4a3129b76812147b66ef986bcf252e5efd41cc05f09de8dbd9c1186b",
      "transactionType": "CALL",
      "contractName": null,
      "contractAddress": "0xcef67989ae740cc9c92fa7385f003f84eaafd915",
      "function": "execute((address,uint256,bytes)[],bytes)",
      "arguments": [
        "[(0x833589fCD6eDb6E08f4c7C32D4f71b54bdA02913, 0, 0x095ea7b300000000000000000000000089f4916479c81470ca90737e3cc60e99062d338800000000000000000000000000000000000000000000000000000000000003e8), (0x89f4916479c81470CA90737e3cc60e99062d3388, 0, 0x7372c2b5000000000000000000000000833589fcd6edb6e08f4c7c32d4f71b54bda02913000000000000000000000000cef67989ae740cc9c92fa7385f003f84eaafd91500000000000000000000000000000000000000000000000000000000000003e8)]",
        "0xea643d597e8ec34115f3d815a21a701bac69b3247016cf1097ed098200e46b39699a50a3b163ebeca9b7ad8bfaeb3d3b94f9f96f5ee34fadbe9b4c4d428426f71c"
      ],
      "transaction": {
        "from": "0x19ef7532c4b4750da2dc328e950ac332d50626ce",
        "to": "0xcef67989ae740cc9c92fa7385f003f84eaafd915",
        "gas": "0xddc6",
        "value": "0x0",
        "input": "0x6171d1c900000000000000000000000000000000000000000000000000000000000000400000000000000000000000000000000000000000000000000000000000000280000000000000000000000000000000000000000000000000000000000000000200000000000000000000000000000000000000000000000000000000000000400000000000000000000000000000000000000000000000000000000000000120000000000000000000000000833589fcd6edb6e08f4c7c32d4f71b54bda02913000000000000000000000000000000000000000000000000000000000000000000000000000000000000000000000000000000000000000000000000000000600000000000000000000000000000000000000000000000000000000000000044095ea7b300000000000000000000000089f4916479c81470ca90737e3cc60e99062d338800000000000000000000000000000000000000000000000000000000000003e80000000000000000000000000000000000000000000000000000000000000000000000000000000089f4916479c81470ca90737e3cc60e99062d33880000000000000000000000000000000000000000000000000000000000000000000000000000000000000000000000000000000000000000000000000000006000000000000000000000000000000000000000000000000000000000000000647372c2b5000000000000000000000000833589fcd6edb6e08f4c7c32d4f71b54bda02913000000000000000000000000cef67989ae740cc9c92fa7385f003f84eaafd91500000000000000000000000000000000000000000000000000000000000003e8000000000000000000000000000000000000000000000000000000000000000000000000000000000000000000000000000000000000000000000041ea643d597e8ec34115f3d815a21a701bac69b3247016cf1097ed098200e46b39699a50a3b163ebeca9b7ad8bfaeb3d3b94f9f96f5ee34fadbe9b4c4d428426f71c00000000000000000000000000000000000000000000000000000000000000",
        "nonce": "0x1",
        "chainId": "0x2105",
        "authorizationList": [
          {
            "chainId": "0x2105",
            "address": "0x75c9ef2bf8154182d8148eeefbfc927f67f50faf",
            "nonce": "0x3bc",
            "yParity": "0x0",
            "r": "0xec7f82032a37d64cdf0fab08bc230b7e8bf271542ffe093e6910d897b37aa787",
            "s": "0x42008600da1e45c9bf7b52723b1197d7bb3b06e65dc79854da4fe4cdc42a17ef"
          }
        ]
      },
      "additionalContracts": [],
      "isFixedGasLimit": false
    }
  ],
  "receipts": [
    {
      "status": "0x1",
      "cumulativeGasUsed": "0x7aef70",
      "logs": [],
      "logsBloom": "0x00000000000000000000000000000000000000000000000000000000000000000000000000000000000000000000000000000000000000000000000000000000000000000000000000000000000000000000000000000000000000000000000000000000000000000000000000000000000000000000000000000000000000000000000000000000000000000000000000000000000000000000000000000000000000000000000000000000000000000000000000000000000000000000000000000000000000000000000000000000000000000000000000000000000000000000000000000000000000000000000000000000000000000000000000000000",
      "type": "0x4",
      "transactionHash": "0xc3f12e0e4a3129b76812147b66ef986bcf252e5efd41cc05f09de8dbd9c1186b",
      "transactionIndex": "0x40",
      "blockHash": "0x0000000000000000000000000000000000000000000000000000000000000000",
      "blockNumber": "0x2c59759",
      "gasUsed": "0xa090",
      "effectiveGasPrice": "0x59a538",
      "blobGasUsed": "0xbd0c",
      "from": "0x19ef7532c4b4750da2dc328e950ac332d50626ce",
      "to": "0xcef67989ae740cc9c92fa7385f003f84eaafd915",
      "contractAddress": null,
      "daFootprintGasScalar": "0x94",
      "l1BaseFeeScalar": "0x8dd",
      "l1BlobBaseFee": "0x5c7e66",
      "l1BlobBaseFeeScalar": "0x101c12",
      "l1Fee": "0x70cf2c6a",
      "l1GasPrice": "0x6d80d54",
      "l1GasUsed": "0x147f"
    }
  ],
  "libraries": [],
  "pending": [],
  "returns": {},
  "timestamp": 1779796883287,
  "chain": 8453,
  "commit": "58c5c3b"
}