{
  "transactions": [
    {
      "hash": "0xcc24de45cb7d25eca7d0b10eb0fcf0cf1be0071f0aab63a0d68a0809fe5c811f",
      "transactionType": "CALL",
      "contractName": null,
      "contractAddress": "0xcef67989ae740cc9c92fa7385f003f84eaafd915",
      "function": "execute((address,uint256,bytes)[],bytes)",
      "arguments": [
        "[(0x833589fCD6eDb6E08f4c7C32D4f71b54bdA02913, 0, 0x095ea7b300000000000000000000000089f4916479c81470ca90737e3cc60e99062d338800000000000000000000000000000000000000000000000000000000000003e8), (0x0000000000000000000000000000000000000000, 0, 0x)]",
        "0xbaf2cebf1491327692d921ca85e7731d7b46115d7bfda2297325c8560fbef50d5d1c02c0a253a1922f7d4453fa9858d702fc834df5fa9e1544430e5c2da9f0c41c"
      ],
      "transaction": {
        "from": "0x19ef7532c4b4750da2dc328e950ac332d50626ce",
        "to": "0xcef67989ae740cc9c92fa7385f003f84eaafd915",
        "gas": "0xd825",
        "value": "0x0",
        "input": "0x6171d1c900000000000000000000000000000000000000000000000000000000000000400000000000000000000000000000000000000000000000000000000000000200000000000000000000000000000000000000000000000000000000000000000200000000000000000000000000000000000000000000000000000000000000400000000000000000000000000000000000000000000000000000000000000120000000000000000000000000833589fcd6edb6e08f4c7c32d4f71b54bda02913000000000000000000000000000000000000000000000000000000000000000000000000000000000000000000000000000000000000000000000000000000600000000000000000000000000000000000000000000000000000000000000044095ea7b300000000000000000000000089f4916479c81470ca90737e3cc60e99062d338800000000000000000000000000000000000000000000000000000000000003e80000000000000000000000000000000000000000000000000000000000000000000000000000000000000000000000000000000000000000000000000000000000000000000000000000000000000000000000000000000000000000000000000000000000000000000000000000000000000000000000000000006000000000000000000000000000000000000000000000000000000000000000000000000000000000000000000000000000000000000000000000000000000041baf2cebf1491327692d921ca85e7731d7b46115d7bfda2297325c8560fbef50d5d1c02c0a253a1922f7d4453fa9858d702fc834df5fa9e1544430e5c2da9f0c41c00000000000000000000000000000000000000000000000000000000000000",
        "nonce": "0x3",
        "chainId": "0x2105",
        "authorizationList": [
          {
            "chainId": "0x2105",
            "address": "0x75c9ef2bf8154182d8148eeefbfc927f67f50faf",
            "nonce": "0x3be",
            "yParity": "0x0",
            "r": "0x61d67b0267378a2c5530777b1bb74e0833ad4adf1b9c9f636fc30729ba603529",
            "s": "0x3d67f146e015fdf91736ff8989fe31869ab7e9cb5ccd8f87298648dda8c2e2ec"
          }
        ]
      },
      "additionalContracts": [],
      "isFixedGasLimit": false
    }
  ],
  "receipts": [
    {
      "status": "0x1",
      "cumulativeGasUsed": "0x2f0ecfe",
      "logs": [],
      "logsBloom": "0x00000000000000000000000000000000000000000000000000000000000000000000000000000000000000000000000000000000000000000000000000000000000000000000000000000000000000000000000000000000000000000000000000000000000000000000000000000000000000000000000000000000000000000000000000000000000000000000000000000000000000000000000000000000000000000000000000000000000000000000000000000000000000000000000000000000000000000000000000000000000000000000000000000000000000000000000000000000000000000000000000000000000000000000000000000000",
      "type": "0x4",
      "transactionHash": "0xcc24de45cb7d25eca7d0b10eb0fcf0cf1be0071f0aab63a0d68a0809fe5c811f",
      "transactionIndex": "0x136",
      "blockHash": "0x289ff55b0d390f78cff183b25cf7a3ad5db69f8e07ceca592754338bd1936ed8",
      "blockNumber": "0x2c5a96b",
      "gasUsed": "0x9c7d",
      "effectiveGasPrice": "0x5b8d80",
      "blobGasUsed": "0xaa8c",
      "from": "0x19ef7532c4b4750da2dc328e950ac332d50626ce",
      "to": "0xcef67989ae740cc9c92fa7385f003f84eaafd915",
      "contractAddress": null,
      "daFootprintGasScalar": "0x94",
      "l1BaseFeeScalar": "0x8dd",
      "l1BlobBaseFee": "0x12e9b70",
      "l1BlobBaseFeeScalar": "0x101c12",
      "l1Fee": "0x25058173c",
      "l1GasPrice": "0x14ddb871",
      "l1GasUsed": "0x1275"
    }
  ],
  "libraries": [],
  "pending": [],
  "returns": {},
  "timestamp": 1779806138124,
  "chain": 8453,
  "commit": "58c5c3b"
}