{
  "transactions": [
    {
      "hash": "0xcba74e0b76682ecd5a89bd09f9f5155121f0979db856300a4e135f7a35cf2768",
      "transactionType": "CALL",
      "contractName": null,
      "contractAddress": "0xcef67989ae740cc9c92fa7385f003f84eaafd915",
      "function": "execute((address,uint256,bytes)[],uint256,bytes)",
      "arguments": [
        "[(0x833589fCD6eDb6E08f4c7C32D4f71b54bdA02913, 0, 0x095ea7b300000000000000000000000089f4916479c81470ca90737e3cc60e99062d338800000000000000000000000000000000000000000000000000000000000003e8), (0x89f4916479c81470CA90737e3cc60e99062d3388, 0, 0x7372c2b5000000000000000000000000833589fcd6edb6e08f4c7c32d4f71b54bda02913000000000000000000000000cef67989ae740cc9c92fa7385f003f84eaafd91500000000000000000000000000000000000000000000000000000000000003e8)]",
        "18",
        "0x13a9d18812db23490e618885086cef69af6c0b35c75ac396931efcf84ee682e8079e7acdec7dc2bd13336e03efc891edb9c3df803ab9ddb9f5267bb1838a2b8f1b"
      ],
      "transaction": {
        "from": "0x19ef7532c4b4750da2dc328e950ac332d50626ce",
        "to": "0xcef67989ae740cc9c92fa7385f003f84eaafd915",
        "gas": "0x2b656",
        "value": "0x0",
        "input": "0x143ca9b00000000000000000000000000000000000000000000000000000000000000060000000000000000000000000000000000000000000000000000000000000001200000000000000000000000000000000000000000000000000000000000002a0000000000000000000000000000000000000000000000000000000000000000200000000000000000000000000000000000000000000000000000000000000400000000000000000000000000000000000000000000000000000000000000120000000000000000000000000833589fcd6edb6e08f4c7c32d4f71b54bda02913000000000000000000000000000000000000000000000000000000000000000000000000000000000000000000000000000000000000000000000000000000600000000000000000000000000000000000000000000000000000000000000044095ea7b300000000000000000000000089f4916479c81470ca90737e3cc60e99062d338800000000000000000000000000000000000000000000000000000000000003e80000000000000000000000000000000000000000000000000000000000000000000000000000000089f4916479c81470ca90737e3cc60e99062d33880000000000000000000000000000000000000000000000000000000000000000000000000000000000000000000000000000000000000000000000000000006000000000000000000000000000000000000000000000000000000000000000647372c2b5000000000000000000000000833589fcd6edb6e08f4c7c32d4f71b54bda02913000000000000000000000000cef67989ae740cc9c92fa7385f003f84eaafd91500000000000000000000000000000000000000000000000000000000000003e800000000000000000000000000000000000000000000000000000000000000000000000000000000000000000000000000000000000000000000004113a9d18812db23490e618885086cef69af6c0b35c75ac396931efcf84ee682e8079e7acdec7dc2bd13336e03efc891edb9c3df803ab9ddb9f5267bb1838a2b8f1b00000000000000000000000000000000000000000000000000000000000000",
        "nonce": "0x5",
        "chainId": "0x2105",
        "authorizationList": [
          {
            "chainId": "0x2105",
            "address": "0x188adb39fe306a4a6748712894d652fe791ea428",
            "nonce": "0x3c3",
            "yParity": "0x0",
            "r": "0xa60fab5be23a5a53c5db50e27303e6d7e6210252cd4927fbc8cf527a54c34c44",
            "s": "0x6760d6c92ca41a78e499b8ebf3ae8ce92d6498989b1d281390c913bf0c32739"
          }
        ]
      },
      "additionalContracts": [],
      "isFixedGasLimit": false
    }
  ],
  "receipts": [
    {
      "status": "0x1",
      "cumulativeGasUsed": "0x22b1b6d",
      "logs": [
        {
          "address": "0x833589fcd6edb6e08f4c7c32d4f71b54bda02913",
          "topics": [
            "0x8c5be1e5ebec7d5bd14f71427d1e84f3dd0314c0f7b2291e5b200ac8c7c3b925",
            "0x000000000000000000000000cef67989ae740cc9c92fa7385f003f84eaafd915",
            "0x00000000000000000000000089f4916479c81470ca90737e3cc60e99062d3388"
          ],
          "data": "0x00000000000000000000000000000000000000000000000000000000000003e8",
          "blockHash": "0x5aac14744721d993dc8aff08bc056785812f214c0fc01cf300a284a0e7bfd137",
          "blockNumber": "0x2c62f52",
          "blockTimestamp": "0x6a16bb87",
          "transactionHash": "0xcba74e0b76682ecd5a89bd09f9f5155121f0979db856300a4e135f7a35cf2768",
          "transactionIndex": "0xb6",
          "logIndex": "0x325",
          "removed": false
        },
        {
          "address": "0xcef67989ae740cc9c92fa7385f003f84eaafd915",
          "topics": [
            "0xed7e8f919df9cc0d0ad8b4057d084ebf319b630564d5da283e14751adc931f3a",
            "0x00000000000000000000000019ef7532c4b4750da2dc328e950ac332d50626ce",
            "0x000000000000000000000000833589fcd6edb6e08f4c7c32d4f71b54bda02913"
          ],
          "data": "0x000000000000000000000000000000000000000000000000000000000000000000000000000000000000000000000000000000000000000000000000000000400000000000000000000000000000000000000000000000000000000000000044095ea7b300000000000000000000000089f4916479c81470ca90737e3cc60e99062d338800000000000000000000000000000000000000000000000000000000000003e800000000000000000000000000000000000000000000000000000000",
          "blockHash": "0x5aac14744721d993dc8aff08bc056785812f214c0fc01cf300a284a0e7bfd137",
          "blockNumber": "0x2c62f52",
          "blockTimestamp": "0x6a16bb87",
          "transactionHash": "0xcba74e0b76682ecd5a89bd09f9f5155121f0979db856300a4e135f7a35cf2768",
          "transactionIndex": "0xb6",
          "logIndex": "0x326",
          "removed": false
        },
        {
          "address": "0x833589fcd6edb6e08f4c7c32d4f71b54bda02913",
          "topics": [
            "0xddf252ad1be2c89b69c2b068fc378daa952ba7f163c4a11628f55a4df523b3ef",
            "0x000000000000000000000000cef67989ae740cc9c92fa7385f003f84eaafd915",
            "0x00000000000000000000000089f4916479c81470ca90737e3cc60e99062d3388"
          ],
          "data": "0x00000000000000000000000000000000000000000000000000000000000003e8",
          "blockHash": "0x5aac14744721d993dc8aff08bc056785812f214c0fc01cf300a284a0e7bfd137",
          "blockNumber": "0x2c62f52",
          "blockTimestamp": "0x6a16bb87",
          "transactionHash": "0xcba74e0b76682ecd5a89bd09f9f5155121f0979db856300a4e135f7a35cf2768",
          "transactionIndex": "0xb6",
          "logIndex": "0x327",
          "removed": false
        },
        {
          "address": "0xcef67989ae740cc9c92fa7385f003f84eaafd915",
          "topics": [
            "0xed7e8f919df9cc0d0ad8b4057d084ebf319b630564d5da283e14751adc931f3a",
            "0x00000000000000000000000019ef7532c4b4750da2dc328e950ac332d50626ce",
            "0x00000000000000000000000089f4916479c81470ca90737e3cc60e99062d3388"
          ],
          "data": "0x0000000000000000000000000000000000000000000000000000000000000000000000000000000000000000000000000000000000000000000000000000004000000000000000000000000000000000000000000000000000000000000000647372c2b5000000000000000000000000833589fcd6edb6e08f4c7c32d4f71b54bda02913000000000000000000000000cef67989ae740cc9c92fa7385f003f84eaafd91500000000000000000000000000000000000000000000000000000000000003e800000000000000000000000000000000000000000000000000000000",
          "blockHash": "0x5aac14744721d993dc8aff08bc056785812f214c0fc01cf300a284a0e7bfd137",
          "blockNumber": "0x2c62f52",
          "blockTimestamp": "0x6a16bb87",
          "transactionHash": "0xcba74e0b76682ecd5a89bd09f9f5155121f0979db856300a4e135f7a35cf2768",
          "transactionIndex": "0xb6",
          "logIndex": "0x328",
          "removed": false
        },
        {
          "address": "0xcef67989ae740cc9c92fa7385f003f84eaafd915",
          "topics": [
            "0x280bb3599696acbf79fb8ffcde81a57337b52500f789600fbb1cff9b4cbaba39",
            "0x0000000000000000000000000000000000000000000000000000000000000012"
          ],
          "data": "0x0000000000000000000000000000000000000000000000000000000000000020000000000000000000000000000000000000000000000000000000000000000200000000000000000000000000000000000000000000000000000000000000400000000000000000000000000000000000000000000000000000000000000120000000000000000000000000833589fcd6edb6e08f4c7c32d4f71b54bda02913000000000000000000000000000000000000000000000000000000000000000000000000000000000000000000000000000000000000000000000000000000600000000000000000000000000000000000000000000000000000000000000044095ea7b300000000000000000000000089f4916479c81470ca90737e3cc60e99062d338800000000000000000000000000000000000000000000000000000000000003e80000000000000000000000000000000000000000000000000000000000000000000000000000000089f4916479c81470ca90737e3cc60e99062d33880000000000000000000000000000000000000000000000000000000000000000000000000000000000000000000000000000000000000000000000000000006000000000000000000000000000000000000000000000000000000000000000647372c2b5000000000000000000000000833589fcd6edb6e08f4c7c32d4f71b54bda02913000000000000000000000000cef67989ae740cc9c92fa7385f003f84eaafd91500000000000000000000000000000000000000000000000000000000000003e800000000000000000000000000000000000000000000000000000000",
          "blockHash": "0x5aac14744721d993dc8aff08bc056785812f214c0fc01cf300a284a0e7bfd137",
          "blockNumber": "0x2c62f52",
          "blockTimestamp": "0x6a16bb87",
          "transactionHash": "0xcba74e0b76682ecd5a89bd09f9f5155121f0979db856300a4e135f7a35cf2768",
          "transactionIndex": "0xb6",
          "logIndex": "0x329",
          "removed": false
        }
      ],
      "logsBloom": "0x00000040000000000000000040000000000000002000000000000000000000000000000000000000000000000000100000000000000000000000000000200000000000000000040000001008000000000000000000080000000000000000000000800000000000000000200000000000010000000000000000040014000000000000000000000000400000000000040000000000000000000000000020000000020020000040200000000000000000000000000000000040000000000000040000000002000000000600000002000000102000000000000000000000000000000010000000000000000002000000000000000000000000000010000000000000",
      "type": "0x4",
      "transactionHash": "0xcba74e0b76682ecd5a89bd09f9f5155121f0979db856300a4e135f7a35cf2768",
      "transactionIndex": "0xb6",
      "blockHash": "0x5aac14744721d993dc8aff08bc056785812f214c0fc01cf300a284a0e7bfd137",
      "blockNumber": "0x2c62f52",
      "gasUsed": "0x1f6b0",
      "effectiveGasPrice": "0x5b8d80",
      "blobGasUsed": "0xc3fc",
      "from": "0x19ef7532c4b4750da2dc328e950ac332d50626ce",
      "to": "0xcef67989ae740cc9c92fa7385f003f84eaafd915",
      "contractAddress": null,
      "daFootprintGasScalar": "0x94",
      "l1BaseFeeScalar": "0x8dd",
      "l1BlobBaseFee": "0x86eaf1",
      "l1BlobBaseFeeScalar": "0x101c12",
      "l1Fee": "0x13fb8e6b4",
      "l1GasPrice": "0xa996645",
      "l1GasUsed": "0x153b"
    }
  ],
  "libraries": [],
  "pending": [],
  "returns": {},
  "timestamp": 1779874696275,
  "chain": 8453,
  "commit": "7ea7ec2"
}