{
  "transactions": [
    {
      "hash": "0x6a7cd064ee381ad77ba6b390659922905c7d3b3db1c044e8b53c9c0167d8ec79",
      "transactionType": "CALL",
      "contractName": null,
      "contractAddress": "0xcef67989ae740cc9c92fa7385f003f84eaafd915",
      "function": "execute((address,uint256,bytes)[],bytes)",
      "arguments": [
        "[(0x833589fCD6eDb6E08f4c7C32D4f71b54bdA02913, 0, 0x095ea7b300000000000000000000000089f4916479c81470ca90737e3cc60e99062d338800000000000000000000000000000000000000000000000000000000000003e8), (0x89f4916479c81470CA90737e3cc60e99062d3388, 0, 0x7372c2b5000000000000000000000000833589fcd6edb6e08f4c7c32d4f71b54bda02913000000000000000000000000cef67989ae740cc9c92fa7385f003f84eaafd91500000000000000000000000000000000000000000000000000000000000003e8)]",
        "0xea643d597e8ec34115f3d815a21a701bac69b3247016cf1097ed098200e46b39699a50a3b163ebeca9b7ad8bfaeb3d3b94f9f96f5ee34fadbe9b4c4d428426f71c"
      ],
      "transaction": {
        "from": "0x19ef7532c4b4750da2dc328e950ac332d50626ce",
        "to": "0xcef67989ae740cc9c92fa7385f003f84eaafd915",
        "gas": "0xddc6",
        "value": "0x0",
        "input": "0x6171d1c900000000000000000000000000000000000000000000000000000000000000400000000000000000000000000000000000000000000000000000000000000280000000000000000000000000000000000000000000000000000000000000000200000000000000000000000000000000000000000000000000000000000000400000000000000000000000000000000000000000000000000000000000000120000000000000000000000000833589fcd6edb6e08f4c7c32d4f71b54bda02913000000000000000000000000000000000000000000000000000000000000000000000000000000000000000000000000000000000000000000000000000000600000000000000000000000000000000000000000000000000000000000000044095ea7b300000000000000000000000089f4916479c81470ca90737e3cc60e99062d338800000000000000000000000000000000000000000000000000000000000003e80000000000000000000000000000000000000000000000000000000000000000000000000000000089f4916479c81470ca90737e3cc60e99062d33880000000000000000000000000000000000000000000000000000000000000000000000000000000000000000000000000000000000000000000000000000006000000000000000000000000000000000000000000000000000000000000000647372c2b5000000000000000000000000833589fcd6edb6e08f4c7c32d4f71b54bda02913000000000000000000000000cef67989ae740cc9c92fa7385f003f84eaafd91500000000000000000000000000000000000000000000000000000000000003e8000000000000000000000000000000000000000000000000000000000000000000000000000000000000000000000000000000000000000000000041ea643d597e8ec34115f3d815a21a701bac69b3247016cf1097ed098200e46b39699a50a3b163ebeca9b7ad8bfaeb3d3b94f9f96f5ee34fadbe9b4c4d428426f71c00000000000000000000000000000000000000000000000000000000000000",
        "nonce": "0x0",
        "chainId": "0x2105",
        "authorizationList": [
          {
            "chainId": "0x2105",
            "address": "0x75c9ef2bf8154182d8148eeefbfc927f67f50faf",
            "nonce": "0x3b9",
            "yParity": "0x1",
            "r": "0xee5916a47403911ff2190f23e4ec21ebd6543408b2c144b709fbd9d43d4b7e70",
            "s": "0x61ff9f33ff902aa9c3fb08802064d6f9d123649b96f39dee210631da4ef17fb2"
          }
        ]
      },
      "additionalContracts": [],
      "isFixedGasLimit": false
    }
  ],
  "receipts": [
    {
      "status": "0x1",
      "cumulativeGasUsed": "0x19a1a57",
      "logs": [],
      "logsBloom": "0x00000000000000000000000000000000000000000000000000000000000000000000000000000000000000000000000000000000000000000000000000000000000000000000000000000000000000000000000000000000000000000000000000000000000000000000000000000000000000000000000000000000000000000000000000000000000000000000000000000000000000000000000000000000000000000000000000000000000000000000000000000000000000000000000000000000000000000000000000000000000000000000000000000000000000000000000000000000000000000000000000000000000000000000000000000000",
      "type": "0x4",
      "transactionHash": "0x6a7cd064ee381ad77ba6b390659922905c7d3b3db1c044e8b53c9c0167d8ec79",
      "transactionIndex": "0xcf",
      "blockHash": "0x0000000000000000000000000000000000000000000000000000000000000000",
      "blockNumber": "0x2c595c7",
      "gasUsed": "0xa090",
      "effectiveGasPrice": "0x565d60",
      "blobGasUsed": "0xbd0c",
      "from": "0x19ef7532c4b4750da2dc328e950ac332d50626ce",
      "to": "0xcef67989ae740cc9c92fa7385f003f84eaafd915",
      "contractAddress": null,
      "daFootprintGasScalar": "0x94",
      "l1BaseFeeScalar": "0x8dd",
      "l1BlobBaseFee": "0x79fa50",
      "l1BlobBaseFeeScalar": "0x101c12",
      "l1Fee": "0x4f4a1572",
      "l1GasPrice": "0x7fbe377",
      "l1GasUsed": "0x147f"
    }
  ],
  "libraries": [],
  "pending": [],
  "returns": {},
  "timestamp": 1779796080748,
  "chain": 8453,
  "commit": "58c5c3b"
}