{
  "transactions": [
    {
      "hash": "0x4c3ca515bbffe33ddd0736d526bd3d7ca08cc85f5acaa5d60c961c628d1d1408",
      "transactionType": "CALL",
      "contractName": null,
      "contractAddress": "0x6a41f762a1324ad739eb0aeb664669b3a641f70a",
      "function": "receivePayment(address,address,uint256,uint256,uint256,bytes32,uint8,bytes32,bytes32)",
      "arguments": [
        "0x833589fCD6eDb6E08f4c7C32D4f71b54bdA02913",
        "0xCEf67989ae740cC9c92fa7385F003F84EAAFd915",
        "1000",
        "0",
        "1779373171",
        "0xda553c98467630f120091c6e2da5c586db20a1013cd2907ddc584a714676edf3",
        "28",
        "0xb916bb3793ee55c714a895c73b917dd806d72ed063d93341964eec1d25ef3cc6",
        "0x5db4c9a84cc6a5bc455bd101fff2c5b27cef86c8999b2c3dde082b011f2ddbd8"
      ],
      "transaction": {
        "from": "0xcef67989ae740cc9c92fa7385f003f84eaafd915",
        "to": "0x6a41f762a1324ad739eb0aeb664669b3a641f70a",
        "gas": "0x1e00b",
        "value": "0x0",
        "input": "0xc0037c72000000000000000000000000833589fcd6edb6e08f4c7c32d4f71b54bda02913000000000000000000000000cef67989ae740cc9c92fa7385f003f84eaafd91500000000000000000000000000000000000000000000000000000000000003e80000000000000000000000000000000000000000000000000000000000000000000000000000000000000000000000000000000000000000000000006a0f1473da553c98467630f120091c6e2da5c586db20a1013cd2907ddc584a714676edf3000000000000000000000000000000000000000000000000000000000000001cb916bb3793ee55c714a895c73b917dd806d72ed063d93341964eec1d25ef3cc65db4c9a84cc6a5bc455bd101fff2c5b27cef86c8999b2c3dde082b011f2ddbd8",
        "nonce": "0x3af",
        "chainId": "0x2105"
      },
      "additionalContracts": [],
      "isFixedGasLimit": false
    }
  ],
  "receipts": [
    {
      "status": "0x1",
      "cumulativeGasUsed": "0x6b1dd4",
      "logs": [
        {
          "address": "0x833589fcd6edb6e08f4c7c32d4f71b54bda02913",
          "topics": [
            "0x98de503528ee59b575ef0c0a2576a82497bfc029a5685b209e9ec333479b10a5",
            "0x000000000000000000000000cef67989ae740cc9c92fa7385f003f84eaafd915",
            "0xda553c98467630f120091c6e2da5c586db20a1013cd2907ddc584a714676edf3"
          ],
          "data": "0x",
          "blockHash": "0x0000000000000000000000000000000000000000000000000000000000000000",
          "blockNumber": "0x2c254c3",
          "blockTimestamp": "0x6a0f0669",
          "transactionHash": "0x4c3ca515bbffe33ddd0736d526bd3d7ca08cc85f5acaa5d60c961c628d1d1408",
          "transactionIndex": "0x35",
          "logIndex": "0xa6",
          "removed": false
        },
        {
          "address": "0x833589fcd6edb6e08f4c7c32d4f71b54bda02913",
          "topics": [
            "0xddf252ad1be2c89b69c2b068fc378daa952ba7f163c4a11628f55a4df523b3ef",
            "0x000000000000000000000000cef67989ae740cc9c92fa7385f003f84eaafd915",
            "0x0000000000000000000000006a41f762a1324ad739eb0aeb664669b3a641f70a"
          ],
          "data": "0x00000000000000000000000000000000000000000000000000000000000003e8",
          "blockHash": "0x0000000000000000000000000000000000000000000000000000000000000000",
          "blockNumber": "0x2c254c3",
          "blockTimestamp": "0x6a0f0669",
          "transactionHash": "0x4c3ca515bbffe33ddd0736d526bd3d7ca08cc85f5acaa5d60c961c628d1d1408",
          "transactionIndex": "0x35",
          "logIndex": "0xa7",
          "removed": false
        }
      ],
      "logsBloom": "0x00000000000080000000000000000000000000000000000000000000000000000000000000000000000800000000100200000000000000000000000200000000000000000000000000000008000000000000000000080000000000000000000000800000000000000000000000000000000000200000000000000014000000000000000000000000000000000000000000000000000000004000000000000000000000000040000001000000000000000004000000000000000000000000000000000002000000000000000000000000000000000000000000000000000000000000000000000000000002000000000000000000000000004000000000000000",
      "type": "0x2",
      "transactionHash": "0x4c3ca515bbffe33ddd0736d526bd3d7ca08cc85f5acaa5d60c961c628d1d1408",
      "transactionIndex": "0x35",
      "blockHash": "0x0000000000000000000000000000000000000000000000000000000000000000",
      "blockNumber": "0x2c254c3",
      "gasUsed": "0x15b8c",
      "effectiveGasPrice": "0x5a9866",
      "blobGasUsed": "0x7684",
      "from": "0xcef67989ae740cc9c92fa7385f003f84eaafd915",
      "to": "0x6a41f762a1324ad739eb0aeb664669b3a641f70a",
      "contractAddress": null,
      "daFootprintGasScalar": "0x94",
      "l1BaseFeeScalar": "0x8dd",
      "l1BlobBaseFee": "0x592a09",
      "l1BlobBaseFeeScalar": "0x101c12",
      "l1Fee": "0x3add48ab",
      "l1GasPrice": "0x615dcf9",
      "l1GasUsed": "0xcd0"
    }
  ],
  "libraries": [],
  "pending": [],
  "returns": {},
  "timestamp": 1779369575745,
  "chain": 8453,
  "commit": "2c3b551"
}