{
  "transactions": [
    {
      "hash": "0xf182f0af3f2fd0ad20e652289c5f575cfc84807fc0868d9ae98c21b87460b4e4",
      "transactionType": "CALL",
      "contractName": null,
      "contractAddress": "0x6a41f762a1324ad739eb0aeb664669b3a641f70a",
      "function": "receivePayment(address,address,uint256,uint256,uint256,bytes32,uint8,bytes32,bytes32)",
      "arguments": [
        "0x833589fCD6eDb6E08f4c7C32D4f71b54bdA02913",
        "0xCEf67989ae740cC9c92fa7385F003F84EAAFd915",
        "1000",
        "0",
        "1779371321",
        "0x2e905d465d67eb8b45cf5ed1f92f135fff2b53c574dda2fc50cbdd8c79c0d579",
        "28",
        "0x4268a13b2971f6a9f48edef26b623e37cc9b3a4095963813aa53c460e7315ac9",
        "0x3aacfb9859447dbbb1fb5114d4e008ea8809737d93df744de4a2a1fba075d039"
      ],
      "transaction": {
        "from": "0xcef67989ae740cc9c92fa7385f003f84eaafd915",
        "to": "0x6a41f762a1324ad739eb0aeb664669b3a641f70a",
        "gas": "0x23c4f",
        "value": "0x0",
        "input": "0xc0037c72000000000000000000000000833589fcd6edb6e08f4c7c32d4f71b54bda02913000000000000000000000000cef67989ae740cc9c92fa7385f003f84eaafd91500000000000000000000000000000000000000000000000000000000000003e80000000000000000000000000000000000000000000000000000000000000000000000000000000000000000000000000000000000000000000000006a0f0d392e905d465d67eb8b45cf5ed1f92f135fff2b53c574dda2fc50cbdd8c79c0d579000000000000000000000000000000000000000000000000000000000000001c4268a13b2971f6a9f48edef26b623e37cc9b3a4095963813aa53c460e7315ac93aacfb9859447dbbb1fb5114d4e008ea8809737d93df744de4a2a1fba075d039",
        "nonce": "0x3a6",
        "chainId": "0x2105"
      },
      "additionalContracts": [],
      "isFixedGasLimit": false
    }
  ],
  "receipts": [
    {
      "status": "0x1",
      "cumulativeGasUsed": "0x337d0af",
      "logs": [
        {
          "address": "0x833589fcd6edb6e08f4c7c32d4f71b54bda02913",
          "topics": [
            "0x98de503528ee59b575ef0c0a2576a82497bfc029a5685b209e9ec333479b10a5",
            "0x000000000000000000000000cef67989ae740cc9c92fa7385f003f84eaafd915",
            "0x2e905d465d67eb8b45cf5ed1f92f135fff2b53c574dda2fc50cbdd8c79c0d579"
          ],
          "data": "0x",
          "blockHash": "0xa72d025779b875198e4172c8644b0309bf8ab473a6cf95e8d8c010008de2a244",
          "blockNumber": "0x2c25126",
          "blockTimestamp": "0x6a0eff2f",
          "transactionHash": "0xf182f0af3f2fd0ad20e652289c5f575cfc84807fc0868d9ae98c21b87460b4e4",
          "transactionIndex": "0xee",
          "logIndex": "0x47e",
          "removed": false
        },
        {
          "address": "0x833589fcd6edb6e08f4c7c32d4f71b54bda02913",
          "topics": [
            "0xddf252ad1be2c89b69c2b068fc378daa952ba7f163c4a11628f55a4df523b3ef",
            "0x000000000000000000000000cef67989ae740cc9c92fa7385f003f84eaafd915",
            "0x0000000000000000000000006a41f762a1324ad739eb0aeb664669b3a641f70a"
          ],
          "data": "0x00000000000000000000000000000000000000000000000000000000000003e8",
          "blockHash": "0xa72d025779b875198e4172c8644b0309bf8ab473a6cf95e8d8c010008de2a244",
          "blockNumber": "0x2c25126",
          "blockTimestamp": "0x6a0eff2f",
          "transactionHash": "0xf182f0af3f2fd0ad20e652289c5f575cfc84807fc0868d9ae98c21b87460b4e4",
          "transactionIndex": "0xee",
          "logIndex": "0x47f",
          "removed": false
        }
      ],
      "logsBloom": "0x00000000000000000000000000000000000000000000000000000000000000000000000000000000000800000000100200000000000000000000000200000000000000000000000000000008000000000000000000080000000000020000000000800000000000000000000002000000000000200000000000000014000000000000000000000000000000000000000000000000000000004000000000000000000000000040000000000000000000000004000000000000000000000000000000000002000000000000000000000000000000000000000000000000000000000000000000000000000002000000000000000000000000000000000080000000",
      "type": "0x2",
      "transactionHash": "0xf182f0af3f2fd0ad20e652289c5f575cfc84807fc0868d9ae98c21b87460b4e4",
      "transactionIndex": "0xee",
      "blockHash": "0xa72d025779b875198e4172c8644b0309bf8ab473a6cf95e8d8c010008de2a244",
      "blockNumber": "0x2c25126",
      "gasUsed": "0x19e58",
      "effectiveGasPrice": "0x5b8d80",
      "blobGasUsed": "0x7684",
      "from": "0xcef67989ae740cc9c92fa7385f003f84eaafd915",
      "to": "0x6a41f762a1324ad739eb0aeb664669b3a641f70a",
      "contractAddress": null,
      "daFootprintGasScalar": "0x94",
      "l1BaseFeeScalar": "0x8dd",
      "l1BlobBaseFee": "0x58800d",
      "l1BlobBaseFeeScalar": "0x101c12",
      "l1Fee": "0x796c041c",
      "l1GasPrice": "0x6429833",
      "l1GasUsed": "0xcd0"
    }
  ],
  "libraries": [],
  "pending": [],
  "returns": {},
  "timestamp": 1779367728219,
  "chain": 8453,
  "commit": "2c3b551"
}