{
  "transactions": [
    {
      "hash": "0x3c16b0b7db3b3e4e3e806c774a0fe3d25e2f80a65c5dc65c29ab8a4b2c6ad799",
      "transactionType": "CALL",
      "contractName": null,
      "contractAddress": "0x4337084d9e255ff0702461cf8895ce9e3b5ff108",
      "function": "handleOps((address,uint256,bytes,bytes,bytes32,uint256,bytes32,bytes,bytes)[],address)",
      "arguments": [
        "[(0xE37ac2BE944Fb089FC95528a9C83d8C30Ce82939, 1, 0x, 0x34fcd5be0000000000000000000000000000000000000000000000000000000000000020000000000000000000000000000000000000000000000000000000000000000200000000000000000000000000000000000000000000000000000000000000400000000000000000000000000000000000000000000000000000000000000120000000000000000000000000036cbd53842c5426634e7929541ec2318f3dcf7e000000000000000000000000000000000000000000000000000000000000000000000000000000000000000000000000000000000000000000000000000000600000000000000000000000000000000000000000000000000000000000000044095ea7b3000000000000000000000000165435cc57e72bb54fb54c76b7907459d4c9a03400000000000000000000000000000000000000000000000000000000000003e800000000000000000000000000000000000000000000000000000000000000000000000000000000165435cc57e72bb54fb54c76b7907459d4c9a0340000000000000000000000000000000000000000000000000000000000000000000000000000000000000000000000000000000000000000000000000000006000000000000000000000000000000000000000000000000000000000000000647372c2b5000000000000000000000000036cbd53842c5426634e7929541ec2318f3dcf7e000000000000000000000000e37ac2be944fb089fc95528a9c83d8c30ce8293900000000000000000000000000000000000000000000000000000000000003e800000000000000000000000000000000000000000000000000000000, 0x0000000000000000000000000003d090000000000000000000000000000186a0, 100000, 0x0000000000000000000000003b9aca00000000000000000000000002540be400, 0x, 0x31f496d1253e2022d987ddd8f627d55b0120523f2b8d33d8b44168ae04f32731671ffc1a4af2ad3f8b9c1d69d4f7a848653187d8d503b319367f336d1eef4a531c)]",
        "0x19Ef7532C4B4750da2DC328e950ac332d50626ce"
      ],
      "transaction": {
        "from": "0x19ef7532c4b4750da2dc328e950ac332d50626ce",
        "to": "0x4337084d9e255ff0702461cf8895ce9e3b5ff108",
        "gas": "0x2c174",
        "value": "0x0",
        "input": "0x765e827f000000000000000000000000000000000000000000000000000000000000004000000000000000000000000019ef7532c4b4750da2dc328e950ac332d50626ce00000000000000000000000000000000000000000000000000000000000000010000000000000000000000000000000000000000000000000000000000000020000000000000000000000000e37ac2be944fb089fc95528a9c83d8c30ce829390000000000000000000000000000000000000000000000000000000000000001000000000000000000000000000000000000000000000000000000000000012000000000000000000000000000000000000000000000000000000000000001400000000000000000000000000003d090000000000000000000000000000186a000000000000000000000000000000000000000000000000000000000000186a00000000000000000000000003b9aca00000000000000000000000002540be40000000000000000000000000000000000000000000000000000000000000003e000000000000000000000000000000000000000000000000000000000000004000000000000000000000000000000000000000000000000000000000000000000000000000000000000000000000000000000000000000000000000000000026434fcd5be0000000000000000000000000000000000000000000000000000000000000020000000000000000000000000000000000000000000000000000000000000000200000000000000000000000000000000000000000000000000000000000000400000000000000000000000000000000000000000000000000000000000000120000000000000000000000000036cbd53842c5426634e7929541ec2318f3dcf7e000000000000000000000000000000000000000000000000000000000000000000000000000000000000000000000000000000000000000000000000000000600000000000000000000000000000000000000000000000000000000000000044095ea7b3000000000000000000000000165435cc57e72bb54fb54c76b7907459d4c9a03400000000000000000000000000000000000000000000000000000000000003e800000000000000000000000000000000000000000000000000000000000000000000000000000000165435cc57e72bb54fb54c76b7907459d4c9a0340000000000000000000000000000000000000000000000000000000000000000000000000000000000000000000000000000000000000000000000000000006000000000000000000000000000000000000000000000000000000000000000647372c2b5000000000000000000000000036cbd53842c5426634e7929541ec2318f3dcf7e000000000000000000000000e37ac2be944fb089fc95528a9c83d8c30ce8293900000000000000000000000000000000000000000000000000000000000003e800000000000000000000000000000000000000000000000000000000000000000000000000000000000000000000000000000000000000000000000000000000000000000000000000000000000000000000000000000000000000000000000000000000000000000000000000000000000000000000004131f496d1253e2022d987ddd8f627d55b0120523f2b8d33d8b44168ae04f32731671ffc1a4af2ad3f8b9c1d69d4f7a848653187d8d503b319367f336d1eef4a531c00000000000000000000000000000000000000000000000000000000000000",
        "nonce": "0x8",
        "chainId": "0x14a34"
      },
      "additionalContracts": [],
      "isFixedGasLimit": false
    }
  ],
  "receipts": [
    {
      "status": "0x1",
      "cumulativeGasUsed": "0x267900",
      "logs": [
        {
          "address": "0x4337084d9e255ff0702461cf8895ce9e3b5ff108",
          "topics": [
            "0xbb47ee3e183a558b1a2ff0874b079f3fc5478b7454eacf2bfc5af2ff5878f972"
          ],
          "data": "0x",
          "blockHash": "0x3c5b3eb4759052d5cb23aeaa137f5a74b41dca3286801eb25e32b4af0d61420f",
          "blockNumber": "0x2813f2f",
          "blockTimestamp": "0x6a15dd3e",
          "transactionHash": "0x3c16b0b7db3b3e4e3e806c774a0fe3d25e2f80a65c5dc65c29ab8a4b2c6ad799",
          "transactionIndex": "0x8",
          "logIndex": "0x6c",
          "removed": false
        },
        {
          "address": "0x4337084d9e255ff0702461cf8895ce9e3b5ff108",
          "topics": [
            "0x1c4fada7374c0a9ee8841fc38afe82932dc0f8e69012e927f061a8bae611a201",
            "0x34eae143496ad11e121794f537cfa7472aa30993835967ad90746d3287ed4703",
            "0x000000000000000000000000e37ac2be944fb089fc95528a9c83d8c30ce82939"
          ],
          "data": "0x0000000000000000000000000000000000000000000000000000000000000001000000000000000000000000000000000000000000000000000000000000004000000000000000000000000000000000000000000000000000000000000001045a15467500000000000000000000000000000000000000000000000000000000000000010000000000000000000000000000000000000000000000000000000000000040000000000000000000000000000000000000000000000000000000000000008408c379a00000000000000000000000000000000000000000000000000000000000000020000000000000000000000000000000000000000000000000000000000000002645524332303a207472616e7366657220616d6f756e7420657863656564732062616c616e636500000000000000000000000000000000000000000000000000000000000000000000000000000000000000000000000000000000000000000000000000000000000000000000000000000000000000000000",
          "blockHash": "0x3c5b3eb4759052d5cb23aeaa137f5a74b41dca3286801eb25e32b4af0d61420f",
          "blockNumber": "0x2813f2f",
          "blockTimestamp": "0x6a15dd3e",
          "transactionHash": "0x3c16b0b7db3b3e4e3e806c774a0fe3d25e2f80a65c5dc65c29ab8a4b2c6ad799",
          "transactionIndex": "0x8",
          "logIndex": "0x6d",
          "removed": false
        },
        {
          "address": "0x4337084d9e255ff0702461cf8895ce9e3b5ff108",
          "topics": [
            "0x49628fd1471006c1482da88028e9ce4dbb080b815c9b0344d39e5a8e6ec1419f",
            "0x34eae143496ad11e121794f537cfa7472aa30993835967ad90746d3287ed4703",
            "0x000000000000000000000000e37ac2be944fb089fc95528a9c83d8c30ce82939",
            "0x0000000000000000000000000000000000000000000000000000000000000000"
          ],
          "data": "0x000000000000000000000000000000000000000000000000000000000000000100000000000000000000000000000000000000000000000000000000000000000000000000000000000000000000000000000000000000000000acd3809008c0000000000000000000000000000000000000000000000000000000000002e297",
          "blockHash": "0x3c5b3eb4759052d5cb23aeaa137f5a74b41dca3286801eb25e32b4af0d61420f",
          "blockNumber": "0x2813f2f",
          "blockTimestamp": "0x6a15dd3e",
          "transactionHash": "0x3c16b0b7db3b3e4e3e806c774a0fe3d25e2f80a65c5dc65c29ab8a4b2c6ad799",
          "transactionIndex": "0x8",
          "logIndex": "0x6e",
          "removed": false
        }
      ],
      "logsBloom": "0x000000000000000000000000000008000000000000000000000000000000000000080000000000000000000100000000000000000100000000000200000000000000400000000000000000000000020000000000000000000000000000500000000000000a0000000000000000000800000000000000000000000000000000000000000000000000000000100000000000000000000000000000000000000000000000000000000000400000000000000000000000000000000002000000000000000000000000000001000000000000000000000040200000000010000020000000000001000000000000000000000000000000000000000000000000000000",
      "type": "0x2",
      "transactionHash": "0x3c16b0b7db3b3e4e3e806c774a0fe3d25e2f80a65c5dc65c29ab8a4b2c6ad799",
      "transactionIndex": "0x8",
      "blockHash": "0x3c5b3eb4759052d5cb23aeaa137f5a74b41dca3286801eb25e32b4af0d61420f",
      "blockNumber": "0x2813f2f",
      "gasUsed": "0x1febd",
      "effectiveGasPrice": "0x4dd1e0",
      "blobGasUsed": "0x26fb4",
      "from": "0x19ef7532c4b4750da2dc328e950ac332d50626ce",
      "to": "0x4337084d9e255ff0702461cf8895ce9e3b5ff108",
      "contractAddress": null,
      "daFootprintGasScalar": "0x1be",
      "l1BaseFeeScalar": "0x44d",
      "l1BlobBaseFee": "0x3262c9c",
      "l1BlobBaseFeeScalar": "0xa118b",
      "l1Fee": "0x47b71615f",
      "l1GasPrice": "0x3f837999",
      "l1GasUsed": "0x166e"
    }
  ],
  "libraries": [],
  "pending": [],
  "returns": {},
  "timestamp": 1779817790298,
  "chain": 84532,
  "commit": "6bc11d5"
}