{
  "transactions": [
    {
      "hash": "0x1758ef960426479a6b574089fa1770fb8cec35471d0f42d1a966ef284aea10fc",
      "transactionType": "CALL",
      "contractName": null,
      "contractAddress": "0x4337084d9e255ff0702461cf8895ce9e3b5ff108",
      "function": "handleOps((address,uint256,bytes,bytes,bytes32,uint256,bytes32,bytes,bytes)[],address)",
      "arguments": [
        "[(0xE37ac2BE944Fb089FC95528a9C83d8C30Ce82939, 3, 0x, 0x34fcd5be0000000000000000000000000000000000000000000000000000000000000020000000000000000000000000000000000000000000000000000000000000000200000000000000000000000000000000000000000000000000000000000000400000000000000000000000000000000000000000000000000000000000000120000000000000000000000000036cbd53842c5426634e7929541ec2318f3dcf7e000000000000000000000000000000000000000000000000000000000000000000000000000000000000000000000000000000000000000000000000000000600000000000000000000000000000000000000000000000000000000000000044095ea7b3000000000000000000000000165435cc57e72bb54fb54c76b7907459d4c9a03400000000000000000000000000000000000000000000000000000000000003e800000000000000000000000000000000000000000000000000000000000000000000000000000000165435cc57e72bb54fb54c76b7907459d4c9a0340000000000000000000000000000000000000000000000000000000000000000000000000000000000000000000000000000000000000000000000000000006000000000000000000000000000000000000000000000000000000000000000647372c2b5000000000000000000000000036cbd53842c5426634e7929541ec2318f3dcf7e000000000000000000000000e37ac2be944fb089fc95528a9c83d8c30ce8293900000000000000000000000000000000000000000000000000000000000003e800000000000000000000000000000000000000000000000000000000, 0x0000000000000000000000000003d090000000000000000000000000000186a0, 100000, 0x0000000000000000000000003b9aca00000000000000000000000002540be400, 0x, 0x2d801a2964f6a8ac89391a9aa0a48382b9a4277eb713894f153b94ca5ef6414e6c6ec0726e7e48056ac48b8c9526701370f2343a75d1ff91de303a74bb5fb90a1c)]",
        "0x19Ef7532C4B4750da2DC328e950ac332d50626ce"
      ],
      "transaction": {
        "from": "0x19ef7532c4b4750da2dc328e950ac332d50626ce",
        "to": "0x4337084d9e255ff0702461cf8895ce9e3b5ff108",
        "gas": "0x2f1b3",
        "value": "0x0",
        "input": "0x765e827f000000000000000000000000000000000000000000000000000000000000004000000000000000000000000019ef7532c4b4750da2dc328e950ac332d50626ce00000000000000000000000000000000000000000000000000000000000000010000000000000000000000000000000000000000000000000000000000000020000000000000000000000000e37ac2be944fb089fc95528a9c83d8c30ce829390000000000000000000000000000000000000000000000000000000000000003000000000000000000000000000000000000000000000000000000000000012000000000000000000000000000000000000000000000000000000000000001400000000000000000000000000003d090000000000000000000000000000186a000000000000000000000000000000000000000000000000000000000000186a00000000000000000000000003b9aca00000000000000000000000002540be40000000000000000000000000000000000000000000000000000000000000003e000000000000000000000000000000000000000000000000000000000000004000000000000000000000000000000000000000000000000000000000000000000000000000000000000000000000000000000000000000000000000000000026434fcd5be0000000000000000000000000000000000000000000000000000000000000020000000000000000000000000000000000000000000000000000000000000000200000000000000000000000000000000000000000000000000000000000000400000000000000000000000000000000000000000000000000000000000000120000000000000000000000000036cbd53842c5426634e7929541ec2318f3dcf7e000000000000000000000000000000000000000000000000000000000000000000000000000000000000000000000000000000000000000000000000000000600000000000000000000000000000000000000000000000000000000000000044095ea7b3000000000000000000000000165435cc57e72bb54fb54c76b7907459d4c9a03400000000000000000000000000000000000000000000000000000000000003e800000000000000000000000000000000000000000000000000000000000000000000000000000000165435cc57e72bb54fb54c76b7907459d4c9a0340000000000000000000000000000000000000000000000000000000000000000000000000000000000000000000000000000000000000000000000000000006000000000000000000000000000000000000000000000000000000000000000647372c2b5000000000000000000000000036cbd53842c5426634e7929541ec2318f3dcf7e000000000000000000000000e37ac2be944fb089fc95528a9c83d8c30ce8293900000000000000000000000000000000000000000000000000000000000003e80000000000000000000000000000000000000000000000000000000000000000000000000000000000000000000000000000000000000000000000000000000000000000000000000000000000000000000000000000000000000000000000000000000000000000000000000000000000000000000000412d801a2964f6a8ac89391a9aa0a48382b9a4277eb713894f153b94ca5ef6414e6c6ec0726e7e48056ac48b8c9526701370f2343a75d1ff91de303a74bb5fb90a1c00000000000000000000000000000000000000000000000000000000000000",
        "nonce": "0xa",
        "chainId": "0x14a34"
      },
      "additionalContracts": [],
      "isFixedGasLimit": false
    }
  ],
  "receipts": [
    {
      "status": "0x1",
      "cumulativeGasUsed": "0x449cf",
      "logs": [
        {
          "address": "0x4337084d9e255ff0702461cf8895ce9e3b5ff108",
          "topics": [
            "0xbb47ee3e183a558b1a2ff0874b079f3fc5478b7454eacf2bfc5af2ff5878f972"
          ],
          "data": "0x",
          "blockHash": "0x0000000000000000000000000000000000000000000000000000000000000000",
          "blockNumber": "0x2814020",
          "blockTimestamp": "0x6a15df20",
          "transactionHash": "0x1758ef960426479a6b574089fa1770fb8cec35471d0f42d1a966ef284aea10fc",
          "transactionIndex": "0x3",
          "logIndex": "0x2",
          "removed": false
        },
        {
          "address": "0x036cbd53842c5426634e7929541ec2318f3dcf7e",
          "topics": [
            "0x8c5be1e5ebec7d5bd14f71427d1e84f3dd0314c0f7b2291e5b200ac8c7c3b925",
            "0x000000000000000000000000e37ac2be944fb089fc95528a9c83d8c30ce82939",
            "0x000000000000000000000000165435cc57e72bb54fb54c76b7907459d4c9a034"
          ],
          "data": "0x00000000000000000000000000000000000000000000000000000000000003e8",
          "blockHash": "0x0000000000000000000000000000000000000000000000000000000000000000",
          "blockNumber": "0x2814020",
          "blockTimestamp": "0x6a15df20",
          "transactionHash": "0x1758ef960426479a6b574089fa1770fb8cec35471d0f42d1a966ef284aea10fc",
          "transactionIndex": "0x3",
          "logIndex": "0x3",
          "removed": false
        },
        {
          "address": "0x036cbd53842c5426634e7929541ec2318f3dcf7e",
          "topics": [
            "0xddf252ad1be2c89b69c2b068fc378daa952ba7f163c4a11628f55a4df523b3ef",
            "0x000000000000000000000000e37ac2be944fb089fc95528a9c83d8c30ce82939",
            "0x000000000000000000000000165435cc57e72bb54fb54c76b7907459d4c9a034"
          ],
          "data": "0x00000000000000000000000000000000000000000000000000000000000003e8",
          "blockHash": "0x0000000000000000000000000000000000000000000000000000000000000000",
          "blockNumber": "0x2814020",
          "blockTimestamp": "0x6a15df20",
          "transactionHash": "0x1758ef960426479a6b574089fa1770fb8cec35471d0f42d1a966ef284aea10fc",
          "transactionIndex": "0x3",
          "logIndex": "0x4",
          "removed": false
        },
        {
          "address": "0x4337084d9e255ff0702461cf8895ce9e3b5ff108",
          "topics": [
            "0x49628fd1471006c1482da88028e9ce4dbb080b815c9b0344d39e5a8e6ec1419f",
            "0xfb98e64dc2a4f337ca16b84537befe50b292dd7edd81be68b2d42002a7c7eb7a",
            "0x000000000000000000000000e37ac2be944fb089fc95528a9c83d8c30ce82939",
            "0x0000000000000000000000000000000000000000000000000000000000000000"
          ],
          "data": "0x000000000000000000000000000000000000000000000000000000000000000300000000000000000000000000000000000000000000000000000000000000010000000000000000000000000000000000000000000000000000bbf4599ee580000000000000000000000000000000000000000000000000000000000003233e",
          "blockHash": "0x0000000000000000000000000000000000000000000000000000000000000000",
          "blockNumber": "0x2814020",
          "blockTimestamp": "0x6a15df20",
          "transactionHash": "0x1758ef960426479a6b574089fa1770fb8cec35471d0f42d1a966ef284aea10fc",
          "transactionIndex": "0x3",
          "logIndex": "0x5",
          "removed": false
        }
      ],
      "logsBloom": "0x000000000400000000000000000000000000000000000000000000000000000000080000800000000000000100000000000000000000000000000200002004000000400000000000000000080000020000000000000000000000000000000008000000800a0000000000000000000800000000000000000000000010000400000000000000000000000000100000000000000000000000000000000000000000020000000000000000400000000001000000000000000000000002000000000000000002000000000001000000000000000000000040200000000010000020000010000000000000000000000020000000000000000000000000000000000000",
      "type": "0x2",
      "transactionHash": "0x1758ef960426479a6b574089fa1770fb8cec35471d0f42d1a966ef284aea10fc",
      "transactionIndex": "0x3",
      "blockHash": "0x0000000000000000000000000000000000000000000000000000000000000000",
      "blockNumber": "0x2814020",
      "gasUsed": "0x2035a",
      "effectiveGasPrice": "0x4dd1e0",
      "blobGasUsed": "0x2786a",
      "from": "0x19ef7532c4b4750da2dc328e950ac332d50626ce",
      "to": "0x4337084d9e255ff0702461cf8895ce9e3b5ff108",
      "contractAddress": null,
      "daFootprintGasScalar": "0x1be",
      "l1BaseFeeScalar": "0x44d",
      "l1BlobBaseFee": "0x3894053",
      "l1BlobBaseFeeScalar": "0xa118b",
      "l1Fee": "0x14e2617bd",
      "l1GasPrice": "0x393ae253",
      "l1GasUsed": "0x16b1"
    }
  ],
  "libraries": [],
  "pending": [],
  "returns": {},
  "timestamp": 1779818271775,
  "chain": 84532,
  "commit": "6bc11d5"
}