{
  "transactions": [
    {
      "hash": "0x3f7e5afe7094190fcf48536d2a3cc668f8994d48deecd47f9118ad607cd83497",
      "transactionType": "CALL",
      "contractName": null,
      "contractAddress": "0x4337084d9e255ff0702461cf8895ce9e3b5ff108",
      "function": "depositTo(address)",
      "arguments": [
        "0xEc6825c81a2101A875A29eC3708Ff3a682b59EeC"
      ],
      "transaction": {
        "from": "0x19ef7532c4b4750da2dc328e950ac332d50626ce",
        "to": "0x4337084d9e255ff0702461cf8895ce9e3b5ff108",
        "gas": "0xf653",
        "value": "0x470de4df820000",
        "input": "0xb760faf9000000000000000000000000ec6825c81a2101a875a29ec3708ff3a682b59eec",
        "nonce": "0x1b",
        "chainId": "0x14a34"
      },
      "additionalContracts": [],
      "isFixedGasLimit": false
    },
    {
      "hash": "0x06030c58adaf2d991ea6d2735df40fe0da0bed4d4890951e257d0d656d0178df",
      "transactionType": "CALL",
      "contractName": null,
      "contractAddress": "0x4337084d9e255ff0702461cf8895ce9e3b5ff108",
      "function": "handleOps((address,uint256,bytes,bytes,bytes32,uint256,bytes32,bytes,bytes)[],address)",
      "arguments": [
        "[(0xEc6825c81a2101A875A29eC3708Ff3a682b59EeC, 36930381635566522335232, 0x13e9ed32155810fdbd067d4522c492d6f68e59445fbfb9cf000000000000000000000000cef67989ae740cc9c92fa7385f003f84eaafd9150000000000000000000000000000000000000000000000000000000000000004, 0x34fcd5be0000000000000000000000000000000000000000000000000000000000000020000000000000000000000000000000000000000000000000000000000000000200000000000000000000000000000000000000000000000000000000000000400000000000000000000000000000000000000000000000000000000000000120000000000000000000000000036cbd53842c5426634e7929541ec2318f3dcf7e000000000000000000000000000000000000000000000000000000000000000000000000000000000000000000000000000000000000000000000000000000600000000000000000000000000000000000000000000000000000000000000044095ea7b3000000000000000000000000165435cc57e72bb54fb54c76b7907459d4c9a03400000000000000000000000000000000000000000000000000000000000003e800000000000000000000000000000000000000000000000000000000000000000000000000000000165435cc57e72bb54fb54c76b7907459d4c9a0340000000000000000000000000000000000000000000000000000000000000000000000000000000000000000000000000000000000000000000000000000006000000000000000000000000000000000000000000000000000000000000000647372c2b5000000000000000000000000036cbd53842c5426634e7929541ec2318f3dcf7e000000000000000000000000ec6825c81a2101a875a29ec3708ff3a682b59eec00000000000000000000000000000000000000000000000000000000000003e800000000000000000000000000000000000000000000000000000000, 0x0000000000000000000000000003d090000000000000000000000000000186a0, 100000, 0x0000000000000000000000003b9aca00000000000000000000000002540be400, 0x, 0x8532e99b9178ce15579ae9c3396bcae5d5a830e740b1f875b3fc370b4f2c0c113a95a048774469a8813cbacbfca0431bb69cd88ca361b7a868ba5ec003af68a91b)]",
        "0x19Ef7532C4B4750da2DC328e950ac332d50626ce"
      ],
      "transaction": {
        "from": "0x19ef7532c4b4750da2dc328e950ac332d50626ce",
        "to": "0x4337084d9e255ff0702461cf8895ce9e3b5ff108",
        "gas": "0x618af",
        "value": "0x0",
        "input": "0x765e827f000000000000000000000000000000000000000000000000000000000000004000000000000000000000000019ef7532c4b4750da2dc328e950ac332d50626ce00000000000000000000000000000000000000000000000000000000000000010000000000000000000000000000000000000000000000000000000000000020000000000000000000000000ec6825c81a2101a875a29ec3708ff3a682b59eec0000000000000000000000000000000000000000000007d20000000000000000000000000000000000000000000000000000000000000000000000000000012000000000000000000000000000000000000000000000000000000000000001a00000000000000000000000000003d090000000000000000000000000000186a000000000000000000000000000000000000000000000000000000000000186a00000000000000000000000003b9aca00000000000000000000000002540be40000000000000000000000000000000000000000000000000000000000000004400000000000000000000000000000000000000000000000000000000000000460000000000000000000000000000000000000000000000000000000000000005813e9ed32155810fdbd067d4522c492d6f68e59445fbfb9cf000000000000000000000000cef67989ae740cc9c92fa7385f003f84eaafd91500000000000000000000000000000000000000000000000000000000000000040000000000000000000000000000000000000000000000000000000000000000000000000000026434fcd5be0000000000000000000000000000000000000000000000000000000000000020000000000000000000000000000000000000000000000000000000000000000200000000000000000000000000000000000000000000000000000000000000400000000000000000000000000000000000000000000000000000000000000120000000000000000000000000036cbd53842c5426634e7929541ec2318f3dcf7e000000000000000000000000000000000000000000000000000000000000000000000000000000000000000000000000000000000000000000000000000000600000000000000000000000000000000000000000000000000000000000000044095ea7b3000000000000000000000000165435cc57e72bb54fb54c76b7907459d4c9a03400000000000000000000000000000000000000000000000000000000000003e800000000000000000000000000000000000000000000000000000000000000000000000000000000165435cc57e72bb54fb54c76b7907459d4c9a0340000000000000000000000000000000000000000000000000000000000000000000000000000000000000000000000000000000000000000000000000000006000000000000000000000000000000000000000000000000000000000000000647372c2b5000000000000000000000000036cbd53842c5426634e7929541ec2318f3dcf7e000000000000000000000000ec6825c81a2101a875a29ec3708ff3a682b59eec00000000000000000000000000000000000000000000000000000000000003e80000000000000000000000000000000000000000000000000000000000000000000000000000000000000000000000000000000000000000000000000000000000000000000000000000000000000000000000000000000000000000000000000000000000000000000000000000000000000000000000418532e99b9178ce15579ae9c3396bcae5d5a830e740b1f875b3fc370b4f2c0c113a95a048774469a8813cbacbfca0431bb69cd88ca361b7a868ba5ec003af68a91b00000000000000000000000000000000000000000000000000000000000000",
        "nonce": "0x1c",
        "chainId": "0x14a34"
      },
      "additionalContracts": [
        {
          "transactionType": "CREATE2",
          "address": "0xec6825c81a2101a875a29ec3708ff3a682b59eec",
          "initCode": "0x60806040526102a88038038061001481610168565b92833981016040828203126101645781516001600160a01b03811692909190838303610164576020810151906001600160401b03821161016457019281601f8501121561016457835161006e610069826101a1565b610168565b9481865260208601936020838301011161016457815f926020809301865e86010152823b15610152577f360894a13ba1a3210667c828492db98dca3e2076cc3735a920a3ca505d382bbc80546001600160a01b031916821790557fbc7cd75a20ee27fd9adebab32041f755214dbc6bffa90cc0225b39da2e5c2d3b5f80a282511561013a575f8091610122945190845af43d15610132573d91610113610069846101a1565b9283523d5f602085013e6101bc565b505b604051608d908161021b8239f35b6060916101bc565b50505034156101245763b398979f60e01b5f5260045ffd5b634c9c8ce360e01b5f5260045260245ffd5b5f80fd5b6040519190601f01601f191682016001600160401b0381118382101761018d57604052565b634e487b7160e01b5f52604160045260245ffd5b6001600160401b03811161018d57601f01601f191660200190565b906101e057508051156101d157805190602001fd5b63d6bda27560e01b5f5260045ffd5b81511580610211575b6101f1575090565b639996b31560e01b5f9081526001600160a01b0391909116600452602490fd5b50803b156101e956fe60806040525f8073ffffffffffffffffffffffffffffffffffffffff7f360894a13ba1a3210667c828492db98dca3e2076cc3735a920a3ca505d382bbc5416368280378136915af43d5f803e156053573d5ff35b3d5ffdfea264697066735822122012ef914fc5c0fe0eff95047a7f10780a737a1ca4f30269b985bcf38a18e4d23464736f6c634300081c003300000000000000000000000028426d752372d68d34340bd94390950dce3c9ec300000000000000000000000000000000000000000000000000000000000000400000000000000000000000000000000000000000000000000000000000000024c4d66de8000000000000000000000000cef67989ae740cc9c92fa7385f003f84eaafd91500000000000000000000000000000000000000000000000000000000"
        }
      ],
      "isFixedGasLimit": false
    },
    {
      "hash": "0x91878633c590deb69c355949606dc3398a43c8366917b93b2a4bf1dba8b716f3",
      "transactionType": "CALL",
      "contractName": null,
      "contractAddress": "0x4337084d9e255ff0702461cf8895ce9e3b5ff108",
      "function": "handleOps((address,uint256,bytes,bytes,bytes32,uint256,bytes32,bytes,bytes)[],address)",
      "arguments": [
        "[(0xEc6825c81a2101A875A29eC3708Ff3a682b59EeC, 18465190817783261167616, 0x, 0x34fcd5be0000000000000000000000000000000000000000000000000000000000000020000000000000000000000000000000000000000000000000000000000000000200000000000000000000000000000000000000000000000000000000000000400000000000000000000000000000000000000000000000000000000000000120000000000000000000000000036cbd53842c5426634e7929541ec2318f3dcf7e000000000000000000000000000000000000000000000000000000000000000000000000000000000000000000000000000000000000000000000000000000600000000000000000000000000000000000000000000000000000000000000044095ea7b3000000000000000000000000165435cc57e72bb54fb54c76b7907459d4c9a03400000000000000000000000000000000000000000000000000000000000003e800000000000000000000000000000000000000000000000000000000000000000000000000000000165435cc57e72bb54fb54c76b7907459d4c9a0340000000000000000000000000000000000000000000000000000000000000000000000000000000000000000000000000000000000000000000000000000006000000000000000000000000000000000000000000000000000000000000000647372c2b5000000000000000000000000036cbd53842c5426634e7929541ec2318f3dcf7e000000000000000000000000ec6825c81a2101a875a29ec3708ff3a682b59eec00000000000000000000000000000000000000000000000000000000000003e800000000000000000000000000000000000000000000000000000000, 0x0000000000000000000000000003d090000000000000000000000000000186a0, 100000, 0x0000000000000000000000003b9aca00000000000000000000000002540be400, 0x, 0xd868a94977329abcd0e13e65267a68ff3ed121e575c5784baa362fef1b8deaf9777d56b4e4098342f11ca5b8389434d55bbf3c266d6b10e90a17842ee43b486a1b)]",
        "0x19Ef7532C4B4750da2DC328e950ac332d50626ce"
      ],
      "transaction": {
        "from": "0x19ef7532c4b4750da2dc328e950ac332d50626ce",
        "to": "0x4337084d9e255ff0702461cf8895ce9e3b5ff108",
        "gas": "0x2ae17",
        "value": "0x0",
        "input": "0x765e827f000000000000000000000000000000000000000000000000000000000000004000000000000000000000000019ef7532c4b4750da2dc328e950ac332d50626ce00000000000000000000000000000000000000000000000000000000000000010000000000000000000000000000000000000000000000000000000000000020000000000000000000000000ec6825c81a2101a875a29ec3708ff3a682b59eec0000000000000000000000000000000000000000000003e90000000000000000000000000000000000000000000000000000000000000000000000000000012000000000000000000000000000000000000000000000000000000000000001400000000000000000000000000003d090000000000000000000000000000186a000000000000000000000000000000000000000000000000000000000000186a00000000000000000000000003b9aca00000000000000000000000002540be40000000000000000000000000000000000000000000000000000000000000003e000000000000000000000000000000000000000000000000000000000000004000000000000000000000000000000000000000000000000000000000000000000000000000000000000000000000000000000000000000000000000000000026434fcd5be0000000000000000000000000000000000000000000000000000000000000020000000000000000000000000000000000000000000000000000000000000000200000000000000000000000000000000000000000000000000000000000000400000000000000000000000000000000000000000000000000000000000000120000000000000000000000000036cbd53842c5426634e7929541ec2318f3dcf7e000000000000000000000000000000000000000000000000000000000000000000000000000000000000000000000000000000000000000000000000000000600000000000000000000000000000000000000000000000000000000000000044095ea7b3000000000000000000000000165435cc57e72bb54fb54c76b7907459d4c9a03400000000000000000000000000000000000000000000000000000000000003e800000000000000000000000000000000000000000000000000000000000000000000000000000000165435cc57e72bb54fb54c76b7907459d4c9a0340000000000000000000000000000000000000000000000000000000000000000000000000000000000000000000000000000000000000000000000000000006000000000000000000000000000000000000000000000000000000000000000647372c2b5000000000000000000000000036cbd53842c5426634e7929541ec2318f3dcf7e000000000000000000000000ec6825c81a2101a875a29ec3708ff3a682b59eec00000000000000000000000000000000000000000000000000000000000003e8000000000000000000000000000000000000000000000000000000000000000000000000000000000000000000000000000000000000000000000000000000000000000000000000000000000000000000000000000000000000000000000000000000000000000000000000000000000000000000000041d868a94977329abcd0e13e65267a68ff3ed121e575c5784baa362fef1b8deaf9777d56b4e4098342f11ca5b8389434d55bbf3c266d6b10e90a17842ee43b486a1b00000000000000000000000000000000000000000000000000000000000000",
        "nonce": "0x1d",
        "chainId": "0x14a34"
      },
      "additionalContracts": [],
      "isFixedGasLimit": false
    }
  ],
  "receipts": [
    {
      "status": "0x1",
      "cumulativeGasUsed": "0x74915a",
      "logs": [
        {
          "address": "0x4337084d9e255ff0702461cf8895ce9e3b5ff108",
          "topics": [
            "0x2da466a7b24304f47e87fa2e1e5a81b9831ce54fec19055ce277ca2f39ba42c4",
            "0x000000000000000000000000ec6825c81a2101a875a29ec3708ff3a682b59eec"
          ],
          "data": "0x00000000000000000000000000000000000000000000000000470de4df820000",
          "blockHash": "0x4840b4386ed6eca38cf4e4488bd9bb8fb1b64dbe97abe9718db7596bcd8e4784",
          "blockNumber": "0x281b872",
          "blockTimestamp": "0x6a16cfc4",
          "transactionHash": "0x3f7e5afe7094190fcf48536d2a3cc668f8994d48deecd47f9118ad607cd83497",
          "transactionIndex": "0x13",
          "logIndex": "0xe5",
          "removed": false
        }
      ],
      "logsBloom": "0x00000000000000000000000000000000000000000000000000000000000000000000000000000800000000000000000000000000000000000000000000000000000000000000000000000000000002000000000000000000000000000000200000000000000000000000000000000000000000000000000000000000000200000000000000000000000000000000000000000000000000001000000000000000000000000000000000000000000000000000000000000000000000000000000000000000000000000000000000000000000000000000200000000010000000000040000000000000002000000000000000000000000000000000000000000000",
      "type": "0x2",
      "transactionHash": "0x3f7e5afe7094190fcf48536d2a3cc668f8994d48deecd47f9118ad607cd83497",
      "transactionIndex": "0x13",
      "blockHash": "0x4840b4386ed6eca38cf4e4488bd9bb8fb1b64dbe97abe9718db7596bcd8e4784",
      "blockNumber": "0x281b872",
      "gasUsed": "0xb256",
      "effectiveGasPrice": "0x4dd1e0",
      "blobGasUsed": "0xae38",
      "from": "0x19ef7532c4b4750da2dc328e950ac332d50626ce",
      "to": "0x4337084d9e255ff0702461cf8895ce9e3b5ff108",
      "contractAddress": null,
      "daFootprintGasScalar": "0x1be",
      "l1BaseFeeScalar": "0x44d",
      "l1BlobBaseFee": "0x74dad24",
      "l1BlobBaseFeeScalar": "0xa118b",
      "l1Fee": "0x2697576ba",
      "l1GasPrice": "0x4cf1413e",
      "l1GasUsed": "0x640"
    },
    {
      "status": "0x1",
      "cumulativeGasUsed": "0x78bc7d",
      "logs": [
        {
          "address": "0xec6825c81a2101a875a29ec3708ff3a682b59eec",
          "topics": [
            "0xbc7cd75a20ee27fd9adebab32041f755214dbc6bffa90cc0225b39da2e5c2d3b",
            "0x00000000000000000000000028426d752372d68d34340bd94390950dce3c9ec3"
          ],
          "data": "0x",
          "blockHash": "0x4840b4386ed6eca38cf4e4488bd9bb8fb1b64dbe97abe9718db7596bcd8e4784",
          "blockNumber": "0x281b872",
          "blockTimestamp": "0x6a16cfc4",
          "transactionHash": "0x06030c58adaf2d991ea6d2735df40fe0da0bed4d4890951e257d0d656d0178df",
          "transactionIndex": "0x14",
          "logIndex": "0xe6",
          "removed": false
        },
        {
          "address": "0xec6825c81a2101a875a29ec3708ff3a682b59eec",
          "topics": [
            "0x47e55c76e7a6f1fd8996a1da8008c1ea29699cca35e7bcd057f2dec313b6e5de",
            "0x0000000000000000000000004337084d9e255ff0702461cf8895ce9e3b5ff108",
            "0x000000000000000000000000cef67989ae740cc9c92fa7385f003f84eaafd915"
          ],
          "data": "0x",
          "blockHash": "0x4840b4386ed6eca38cf4e4488bd9bb8fb1b64dbe97abe9718db7596bcd8e4784",
          "blockNumber": "0x281b872",
          "blockTimestamp": "0x6a16cfc4",
          "transactionHash": "0x06030c58adaf2d991ea6d2735df40fe0da0bed4d4890951e257d0d656d0178df",
          "transactionIndex": "0x14",
          "logIndex": "0xe7",
          "removed": false
        },
        {
          "address": "0xec6825c81a2101a875a29ec3708ff3a682b59eec",
          "topics": [
            "0xc7f505b2f371ae2175ee4913f4499e1f2633a7b5936321eed1cdaeb6115181d2"
          ],
          "data": "0x0000000000000000000000000000000000000000000000000000000000000001",
          "blockHash": "0x4840b4386ed6eca38cf4e4488bd9bb8fb1b64dbe97abe9718db7596bcd8e4784",
          "blockNumber": "0x281b872",
          "blockTimestamp": "0x6a16cfc4",
          "transactionHash": "0x06030c58adaf2d991ea6d2735df40fe0da0bed4d4890951e257d0d656d0178df",
          "transactionIndex": "0x14",
          "logIndex": "0xe8",
          "removed": false
        },
        {
          "address": "0x4337084d9e255ff0702461cf8895ce9e3b5ff108",
          "topics": [
            "0xd51a9c61267aa6196961883ecf5ff2da6619c37dac0fa92122513fb32c032d2d",
            "0xa5dd418ab4a5b819c89e0309a9d35612888543dcf23e5de4538acd0ffc4215ad",
            "0x000000000000000000000000ec6825c81a2101a875a29ec3708ff3a682b59eec"
          ],
          "data": "0x00000000000000000000000013e9ed32155810fdbd067d4522c492d6f68e59440000000000000000000000000000000000000000000000000000000000000000",
          "blockHash": "0x4840b4386ed6eca38cf4e4488bd9bb8fb1b64dbe97abe9718db7596bcd8e4784",
          "blockNumber": "0x281b872",
          "blockTimestamp": "0x6a16cfc4",
          "transactionHash": "0x06030c58adaf2d991ea6d2735df40fe0da0bed4d4890951e257d0d656d0178df",
          "transactionIndex": "0x14",
          "logIndex": "0xe9",
          "removed": false
        },
        {
          "address": "0x4337084d9e255ff0702461cf8895ce9e3b5ff108",
          "topics": [
            "0xbb47ee3e183a558b1a2ff0874b079f3fc5478b7454eacf2bfc5af2ff5878f972"
          ],
          "data": "0x",
          "blockHash": "0x4840b4386ed6eca38cf4e4488bd9bb8fb1b64dbe97abe9718db7596bcd8e4784",
          "blockNumber": "0x281b872",
          "blockTimestamp": "0x6a16cfc4",
          "transactionHash": "0x06030c58adaf2d991ea6d2735df40fe0da0bed4d4890951e257d0d656d0178df",
          "transactionIndex": "0x14",
          "logIndex": "0xea",
          "removed": false
        },
        {
          "address": "0x036cbd53842c5426634e7929541ec2318f3dcf7e",
          "topics": [
            "0x8c5be1e5ebec7d5bd14f71427d1e84f3dd0314c0f7b2291e5b200ac8c7c3b925",
            "0x000000000000000000000000ec6825c81a2101a875a29ec3708ff3a682b59eec",
            "0x000000000000000000000000165435cc57e72bb54fb54c76b7907459d4c9a034"
          ],
          "data": "0x00000000000000000000000000000000000000000000000000000000000003e8",
          "blockHash": "0x4840b4386ed6eca38cf4e4488bd9bb8fb1b64dbe97abe9718db7596bcd8e4784",
          "blockNumber": "0x281b872",
          "blockTimestamp": "0x6a16cfc4",
          "transactionHash": "0x06030c58adaf2d991ea6d2735df40fe0da0bed4d4890951e257d0d656d0178df",
          "transactionIndex": "0x14",
          "logIndex": "0xeb",
          "removed": false
        },
        {
          "address": "0x036cbd53842c5426634e7929541ec2318f3dcf7e",
          "topics": [
            "0xddf252ad1be2c89b69c2b068fc378daa952ba7f163c4a11628f55a4df523b3ef",
            "0x000000000000000000000000ec6825c81a2101a875a29ec3708ff3a682b59eec",
            "0x000000000000000000000000165435cc57e72bb54fb54c76b7907459d4c9a034"
          ],
          "data": "0x00000000000000000000000000000000000000000000000000000000000003e8",
          "blockHash": "0x4840b4386ed6eca38cf4e4488bd9bb8fb1b64dbe97abe9718db7596bcd8e4784",
          "blockNumber": "0x281b872",
          "blockTimestamp": "0x6a16cfc4",
          "transactionHash": "0x06030c58adaf2d991ea6d2735df40fe0da0bed4d4890951e257d0d656d0178df",
          "transactionIndex": "0x14",
          "logIndex": "0xec",
          "removed": false
        },
        {
          "address": "0x4337084d9e255ff0702461cf8895ce9e3b5ff108",
          "topics": [
            "0x49628fd1471006c1482da88028e9ce4dbb080b815c9b0344d39e5a8e6ec1419f",
            "0xa5dd418ab4a5b819c89e0309a9d35612888543dcf23e5de4538acd0ffc4215ad",
            "0x000000000000000000000000ec6825c81a2101a875a29ec3708ff3a682b59eec",
            "0x0000000000000000000000000000000000000000000000000000000000000000"
          ],
          "data": "0x0000000000000000000000000000000000000000000007d20000000000000000000000000000000000000000000000000000000000000000000000000000000100000000000000000000000000000000000000000000000000013ff70c724cc00000000000000000000000000000000000000000000000000000000000055767",
          "blockHash": "0x4840b4386ed6eca38cf4e4488bd9bb8fb1b64dbe97abe9718db7596bcd8e4784",
          "blockNumber": "0x281b872",
          "blockTimestamp": "0x6a16cfc4",
          "transactionHash": "0x06030c58adaf2d991ea6d2735df40fe0da0bed4d4890951e257d0d656d0178df",
          "transactionIndex": "0x14",
          "logIndex": "0xed",
          "removed": false
        }
      ],
      "logsBloom": "0x000004000400000000000000000000004000040000000000000000000000000000080000802008000000000100000000800000000000000000000a0008200400000000000000000000000008000002000000000000000000000010000000000800000000020000000000000000000800000000000000000000000014000000000000000000000000000800000000000000000300000480001000000000000000030000000040000000400000000001000000000000000000000002000000000000000022000000000001000000000000000000000004200000000010008020200010000000100000002002000020000000000004000000400000000400000000",
      "type": "0x2",
      "transactionHash": "0x06030c58adaf2d991ea6d2735df40fe0da0bed4d4890951e257d0d656d0178df",
      "transactionIndex": "0x14",
      "blockHash": "0x4840b4386ed6eca38cf4e4488bd9bb8fb1b64dbe97abe9718db7596bcd8e4784",
      "blockNumber": "0x281b872",
      "gasUsed": "0x42b23",
      "effectiveGasPrice": "0x4dd1e0",
      "blobGasUsed": "0x2d302",
      "from": "0x19ef7532c4b4750da2dc328e950ac332d50626ce",
      "to": "0x4337084d9e255ff0702461cf8895ce9e3b5ff108",
      "contractAddress": null,
      "daFootprintGasScalar": "0x1be",
      "l1BaseFeeScalar": "0x44d",
      "l1BlobBaseFee": "0x74dad24",
      "l1BlobBaseFeeScalar": "0xa118b",
      "l1Fee": "0xa077ec0fa",
      "l1GasPrice": "0x4cf1413e",
      "l1GasUsed": "0x19fd"
    }
  ],
  "libraries": [],
  "pending": [],
  "returns": {},
  "timestamp": 1779879876205,
  "chain": 84532,
  "commit": "7ea7ec2"
}