{
  "transactions": [
    {
      "hash": "0xdc3c90997abf68f139ceb7e486d43d9d88b91d145d0d291b592ac3ac1b7c0f07",
      "transactionType": "CALL",
      "contractName": null,
      "contractAddress": "0x4337084d9e255ff0702461cf8895ce9e3b5ff108",
      "function": "handleOps((address,uint256,bytes,bytes,bytes32,uint256,bytes32,bytes,bytes)[],address)",
      "arguments": [
        "[(0x56C604FEFb713f394E808f3B8186715445F0721f, 18465190817783261167616, 0x, 0x34fcd5be0000000000000000000000000000000000000000000000000000000000000020000000000000000000000000000000000000000000000000000000000000000200000000000000000000000000000000000000000000000000000000000000400000000000000000000000000000000000000000000000000000000000000120000000000000000000000000036cbd53842c5426634e7929541ec2318f3dcf7e000000000000000000000000000000000000000000000000000000000000000000000000000000000000000000000000000000000000000000000000000000600000000000000000000000000000000000000000000000000000000000000044095ea7b3000000000000000000000000165435cc57e72bb54fb54c76b7907459d4c9a03400000000000000000000000000000000000000000000000000000000000003e800000000000000000000000000000000000000000000000000000000000000000000000000000000165435cc57e72bb54fb54c76b7907459d4c9a0340000000000000000000000000000000000000000000000000000000000000000000000000000000000000000000000000000000000000000000000000000006000000000000000000000000000000000000000000000000000000000000000647372c2b5000000000000000000000000036cbd53842c5426634e7929541ec2318f3dcf7e00000000000000000000000056c604fefb713f394e808f3b8186715445f0721f00000000000000000000000000000000000000000000000000000000000003e800000000000000000000000000000000000000000000000000000000, 0x0000000000000000000000000003d090000000000000000000000000000493e0, 100000, 0x0000000000000000000000003b9aca00000000000000000000000002540be400, 0x, 0x51dded18179fc5d1121fbfa501da90c3171ed62562ae4403e176cda1158ac7e01cb74cd34c1ed69550bb25f96dbe0f972473ae62a1cecb20efe237ee55f9b94e1b)]",
        "0x19Ef7532C4B4750da2DC328e950ac332d50626ce"
      ],
      "transaction": {
        "from": "0x19ef7532c4b4750da2dc328e950ac332d50626ce",
        "to": "0x4337084d9e255ff0702461cf8895ce9e3b5ff108",
        "gas": "0x2ae17",
        "value": "0x0",
        "input": "0x765e827f000000000000000000000000000000000000000000000000000000000000004000000000000000000000000019ef7532c4b4750da2dc328e950ac332d50626ce0000000000000000000000000000000000000000000000000000000000000001000000000000000000000000000000000000000000000000000000000000002000000000000000000000000056c604fefb713f394e808f3b8186715445f0721f0000000000000000000000000000000000000000000003e90000000000000000000000000000000000000000000000000000000000000000000000000000012000000000000000000000000000000000000000000000000000000000000001400000000000000000000000000003d090000000000000000000000000000493e000000000000000000000000000000000000000000000000000000000000186a00000000000000000000000003b9aca00000000000000000000000002540be40000000000000000000000000000000000000000000000000000000000000003e000000000000000000000000000000000000000000000000000000000000004000000000000000000000000000000000000000000000000000000000000000000000000000000000000000000000000000000000000000000000000000000026434fcd5be0000000000000000000000000000000000000000000000000000000000000020000000000000000000000000000000000000000000000000000000000000000200000000000000000000000000000000000000000000000000000000000000400000000000000000000000000000000000000000000000000000000000000120000000000000000000000000036cbd53842c5426634e7929541ec2318f3dcf7e000000000000000000000000000000000000000000000000000000000000000000000000000000000000000000000000000000000000000000000000000000600000000000000000000000000000000000000000000000000000000000000044095ea7b3000000000000000000000000165435cc57e72bb54fb54c76b7907459d4c9a03400000000000000000000000000000000000000000000000000000000000003e800000000000000000000000000000000000000000000000000000000000000000000000000000000165435cc57e72bb54fb54c76b7907459d4c9a0340000000000000000000000000000000000000000000000000000000000000000000000000000000000000000000000000000000000000000000000000000006000000000000000000000000000000000000000000000000000000000000000647372c2b5000000000000000000000000036cbd53842c5426634e7929541ec2318f3dcf7e00000000000000000000000056c604fefb713f394e808f3b8186715445f0721f00000000000000000000000000000000000000000000000000000000000003e800000000000000000000000000000000000000000000000000000000000000000000000000000000000000000000000000000000000000000000000000000000000000000000000000000000000000000000000000000000000000000000000000000000000000000000000000000000000000000000004151dded18179fc5d1121fbfa501da90c3171ed62562ae4403e176cda1158ac7e01cb74cd34c1ed69550bb25f96dbe0f972473ae62a1cecb20efe237ee55f9b94e1b00000000000000000000000000000000000000000000000000000000000000",
        "nonce": "0x17",
        "chainId": "0x14a34"
      },
      "additionalContracts": [],
      "isFixedGasLimit": false
    }
  ],
  "receipts": [],
  "libraries": [],
  "pending": [],
  "returns": {},
  "timestamp": 1779878775013,
  "chain": 84532,
  "commit": "7ea7ec2"
}