{
  "transactions": [
    {
      "hash": "0x522a59a6bac05855fb3ce9c34c92b4934e9984dd0c4dc6bf1dd2f390e2ba1b6b",
      "transactionType": "CALL",
      "contractName": null,
      "contractAddress": "0x4337084d9e255ff0702461cf8895ce9e3b5ff108",
      "function": "handleOps((address,uint256,bytes,bytes,bytes32,uint256,bytes32,bytes,bytes)[],address)",
      "arguments": [
        "[(0xE37ac2BE944Fb089FC95528a9C83d8C30Ce82939, 2, 0x, 0x34fcd5be0000000000000000000000000000000000000000000000000000000000000020000000000000000000000000000000000000000000000000000000000000000200000000000000000000000000000000000000000000000000000000000000400000000000000000000000000000000000000000000000000000000000000120000000000000000000000000036cbd53842c5426634e7929541ec2318f3dcf7e000000000000000000000000000000000000000000000000000000000000000000000000000000000000000000000000000000000000000000000000000000600000000000000000000000000000000000000000000000000000000000000044095ea7b3000000000000000000000000165435cc57e72bb54fb54c76b7907459d4c9a03400000000000000000000000000000000000000000000000000000000000003e800000000000000000000000000000000000000000000000000000000000000000000000000000000165435cc57e72bb54fb54c76b7907459d4c9a0340000000000000000000000000000000000000000000000000000000000000000000000000000000000000000000000000000000000000000000000000000006000000000000000000000000000000000000000000000000000000000000000647372c2b5000000000000000000000000036cbd53842c5426634e7929541ec2318f3dcf7e000000000000000000000000e37ac2be944fb089fc95528a9c83d8c30ce8293900000000000000000000000000000000000000000000000000000000000003e800000000000000000000000000000000000000000000000000000000, 0x0000000000000000000000000003d090000000000000000000000000000186a0, 100000, 0x0000000000000000000000003b9aca00000000000000000000000002540be400, 0x, 0x6c561e5780a020dbbc72045f27d42bbb3d336b03e5fc4a4a83ab71f02f85a93a307eb06bb8cbf60c87a6936a398c1e9f115b97d85f58f644201fe13e0e31a70c1b)]",
        "0x19Ef7532C4B4750da2DC328e950ac332d50626ce"
      ],
      "transaction": {
        "from": "0x19ef7532c4b4750da2dc328e950ac332d50626ce",
        "to": "0x4337084d9e255ff0702461cf8895ce9e3b5ff108",
        "gas": "0x2c174",
        "value": "0x0",
        "input": "0x765e827f000000000000000000000000000000000000000000000000000000000000004000000000000000000000000019ef7532c4b4750da2dc328e950ac332d50626ce00000000000000000000000000000000000000000000000000000000000000010000000000000000000000000000000000000000000000000000000000000020000000000000000000000000e37ac2be944fb089fc95528a9c83d8c30ce829390000000000000000000000000000000000000000000000000000000000000002000000000000000000000000000000000000000000000000000000000000012000000000000000000000000000000000000000000000000000000000000001400000000000000000000000000003d090000000000000000000000000000186a000000000000000000000000000000000000000000000000000000000000186a00000000000000000000000003b9aca00000000000000000000000002540be40000000000000000000000000000000000000000000000000000000000000003e000000000000000000000000000000000000000000000000000000000000004000000000000000000000000000000000000000000000000000000000000000000000000000000000000000000000000000000000000000000000000000000026434fcd5be0000000000000000000000000000000000000000000000000000000000000020000000000000000000000000000000000000000000000000000000000000000200000000000000000000000000000000000000000000000000000000000000400000000000000000000000000000000000000000000000000000000000000120000000000000000000000000036cbd53842c5426634e7929541ec2318f3dcf7e000000000000000000000000000000000000000000000000000000000000000000000000000000000000000000000000000000000000000000000000000000600000000000000000000000000000000000000000000000000000000000000044095ea7b3000000000000000000000000165435cc57e72bb54fb54c76b7907459d4c9a03400000000000000000000000000000000000000000000000000000000000003e800000000000000000000000000000000000000000000000000000000000000000000000000000000165435cc57e72bb54fb54c76b7907459d4c9a0340000000000000000000000000000000000000000000000000000000000000000000000000000000000000000000000000000000000000000000000000000006000000000000000000000000000000000000000000000000000000000000000647372c2b5000000000000000000000000036cbd53842c5426634e7929541ec2318f3dcf7e000000000000000000000000e37ac2be944fb089fc95528a9c83d8c30ce8293900000000000000000000000000000000000000000000000000000000000003e80000000000000000000000000000000000000000000000000000000000000000000000000000000000000000000000000000000000000000000000000000000000000000000000000000000000000000000000000000000000000000000000000000000000000000000000000000000000000000000000416c561e5780a020dbbc72045f27d42bbb3d336b03e5fc4a4a83ab71f02f85a93a307eb06bb8cbf60c87a6936a398c1e9f115b97d85f58f644201fe13e0e31a70c1b00000000000000000000000000000000000000000000000000000000000000",
        "nonce": "0x9",
        "chainId": "0x14a34"
      },
      "additionalContracts": [],
      "isFixedGasLimit": false
    }
  ],
  "receipts": [
    {
      "status": "0x1",
      "cumulativeGasUsed": "0x1b15ac",
      "logs": [
        {
          "address": "0x4337084d9e255ff0702461cf8895ce9e3b5ff108",
          "topics": [
            "0xbb47ee3e183a558b1a2ff0874b079f3fc5478b7454eacf2bfc5af2ff5878f972"
          ],
          "data": "0x",
          "blockHash": "0x0000000000000000000000000000000000000000000000000000000000000000",
          "blockNumber": "0x2813fbe",
          "blockTimestamp": "0x6a15de5c",
          "transactionHash": "0x522a59a6bac05855fb3ce9c34c92b4934e9984dd0c4dc6bf1dd2f390e2ba1b6b",
          "transactionIndex": "0xb",
          "logIndex": "0x4d",
          "removed": false
        },
        {
          "address": "0x4337084d9e255ff0702461cf8895ce9e3b5ff108",
          "topics": [
            "0x1c4fada7374c0a9ee8841fc38afe82932dc0f8e69012e927f061a8bae611a201",
            "0x32774ee62aabe06f2b8261551a58dd57209a6011824eb0cb7d20fdf8fc0cf8a2",
            "0x000000000000000000000000e37ac2be944fb089fc95528a9c83d8c30ce82939"
          ],
          "data": "0x0000000000000000000000000000000000000000000000000000000000000002000000000000000000000000000000000000000000000000000000000000004000000000000000000000000000000000000000000000000000000000000001045a15467500000000000000000000000000000000000000000000000000000000000000010000000000000000000000000000000000000000000000000000000000000040000000000000000000000000000000000000000000000000000000000000008408c379a00000000000000000000000000000000000000000000000000000000000000020000000000000000000000000000000000000000000000000000000000000002645524332303a207472616e7366657220616d6f756e7420657863656564732062616c616e636500000000000000000000000000000000000000000000000000000000000000000000000000000000000000000000000000000000000000000000000000000000000000000000000000000000000000000000",
          "blockHash": "0x0000000000000000000000000000000000000000000000000000000000000000",
          "blockNumber": "0x2813fbe",
          "blockTimestamp": "0x6a15de5c",
          "transactionHash": "0x522a59a6bac05855fb3ce9c34c92b4934e9984dd0c4dc6bf1dd2f390e2ba1b6b",
          "transactionIndex": "0xb",
          "logIndex": "0x4e",
          "removed": false
        },
        {
          "address": "0x4337084d9e255ff0702461cf8895ce9e3b5ff108",
          "topics": [
            "0x49628fd1471006c1482da88028e9ce4dbb080b815c9b0344d39e5a8e6ec1419f",
            "0x32774ee62aabe06f2b8261551a58dd57209a6011824eb0cb7d20fdf8fc0cf8a2",
            "0x000000000000000000000000e37ac2be944fb089fc95528a9c83d8c30ce82939",
            "0x0000000000000000000000000000000000000000000000000000000000000000"
          ],
          "data": "0x000000000000000000000000000000000000000000000000000000000000000200000000000000000000000000000000000000000000000000000000000000000000000000000000000000000000000000000000000000000000acd3809008c0000000000000000000000000000000000000000000000000000000000002e297",
          "blockHash": "0x0000000000000000000000000000000000000000000000000000000000000000",
          "blockNumber": "0x2813fbe",
          "blockTimestamp": "0x6a15de5c",
          "transactionHash": "0x522a59a6bac05855fb3ce9c34c92b4934e9984dd0c4dc6bf1dd2f390e2ba1b6b",
          "transactionIndex": "0xb",
          "logIndex": "0x4f",
          "removed": false
        }
      ],
      "logsBloom": "0x000000000000000000000000000000000000000000008000000000000000000000080000000000000000000100000000000000000000000000000200000000000000400000000000000000000000020000000000000000000000000000400000000000000a0000000000000000000900000000000000000000000000000000000000000000000000000008100000000000000000000000000000000000000000000000000000000000400000000000000000000000000000000002000000000000000000000000000001000000000000000000000040200000000010000020000000000001000000000000000000000000000000000000000000000000000000",
      "type": "0x2",
      "transactionHash": "0x522a59a6bac05855fb3ce9c34c92b4934e9984dd0c4dc6bf1dd2f390e2ba1b6b",
      "transactionIndex": "0xb",
      "blockHash": "0x0000000000000000000000000000000000000000000000000000000000000000",
      "blockNumber": "0x2813fbe",
      "gasUsed": "0x1febd",
      "effectiveGasPrice": "0x4dd1e0",
      "blobGasUsed": "0x26fb4",
      "from": "0x19ef7532c4b4750da2dc328e950ac332d50626ce",
      "to": "0x4337084d9e255ff0702461cf8895ce9e3b5ff108",
      "contractAddress": null,
      "daFootprintGasScalar": "0x1be",
      "l1BaseFeeScalar": "0x44d",
      "l1BlobBaseFee": "0x3cf8b5d",
      "l1BlobBaseFeeScalar": "0xa118b",
      "l1Fee": "0x4ea8f4ac8",
      "l1GasPrice": "0x3d0df6c1",
      "l1GasUsed": "0x166e"
    }
  ],
  "libraries": [],
  "pending": [],
  "returns": {},
  "timestamp": 1779818076092,
  "chain": 84532,
  "commit": "6bc11d5"
}