{
  "transactions": [
    {
      "hash": "0xb239f9ea2a351163d28804375103084cd240e5ca06547a5f98ac78e168a27217",
      "transactionType": "CALL",
      "contractName": null,
      "contractAddress": "0x4337084d9e255ff0702461cf8895ce9e3b5ff108",
      "function": "handleOps((address,uint256,bytes,bytes,bytes32,uint256,bytes32,bytes,bytes)[],address)",
      "arguments": [
        "[(0x56C604FEFb713f394E808f3B8186715445F0721f, 18465190817783261167616, 0x, 0x34fcd5be0000000000000000000000000000000000000000000000000000000000000020000000000000000000000000000000000000000000000000000000000000000200000000000000000000000000000000000000000000000000000000000000400000000000000000000000000000000000000000000000000000000000000120000000000000000000000000036cbd53842c5426634e7929541ec2318f3dcf7e000000000000000000000000000000000000000000000000000000000000000000000000000000000000000000000000000000000000000000000000000000600000000000000000000000000000000000000000000000000000000000000044095ea7b3000000000000000000000000165435cc57e72bb54fb54c76b7907459d4c9a03400000000000000000000000000000000000000000000000000000000000003e800000000000000000000000000000000000000000000000000000000000000000000000000000000165435cc57e72bb54fb54c76b7907459d4c9a0340000000000000000000000000000000000000000000000000000000000000000000000000000000000000000000000000000000000000000000000000000006000000000000000000000000000000000000000000000000000000000000000647372c2b5000000000000000000000000036cbd53842c5426634e7929541ec2318f3dcf7e00000000000000000000000056c604fefb713f394e808f3b8186715445f0721f00000000000000000000000000000000000000000000000000000000000003e800000000000000000000000000000000000000000000000000000000, 0x0000000000000000000000000003d090000000000000000000000000000186a0, 100000, 0x0000000000000000000000003b9aca00000000000000000000000002540be400, 0x, 0x1cdf2e933b00d1b6b837ca1bfc3ed82bd1136f9e5fd4d24eace844d8ad9e955212a1cffe06d8c707e2f6b730496f3b86e9218f72b00d2a96a2cea410e16c892b1c)]",
        "0x19Ef7532C4B4750da2DC328e950ac332d50626ce"
      ],
      "transaction": {
        "from": "0x19ef7532c4b4750da2dc328e950ac332d50626ce",
        "to": "0x4337084d9e255ff0702461cf8895ce9e3b5ff108",
        "gas": "0x2ae06",
        "value": "0x0",
        "input": "0x765e827f000000000000000000000000000000000000000000000000000000000000004000000000000000000000000019ef7532c4b4750da2dc328e950ac332d50626ce0000000000000000000000000000000000000000000000000000000000000001000000000000000000000000000000000000000000000000000000000000002000000000000000000000000056c604fefb713f394e808f3b8186715445f0721f0000000000000000000000000000000000000000000003e90000000000000000000000000000000000000000000000000000000000000000000000000000012000000000000000000000000000000000000000000000000000000000000001400000000000000000000000000003d090000000000000000000000000000186a000000000000000000000000000000000000000000000000000000000000186a00000000000000000000000003b9aca00000000000000000000000002540be40000000000000000000000000000000000000000000000000000000000000003e000000000000000000000000000000000000000000000000000000000000004000000000000000000000000000000000000000000000000000000000000000000000000000000000000000000000000000000000000000000000000000000026434fcd5be0000000000000000000000000000000000000000000000000000000000000020000000000000000000000000000000000000000000000000000000000000000200000000000000000000000000000000000000000000000000000000000000400000000000000000000000000000000000000000000000000000000000000120000000000000000000000000036cbd53842c5426634e7929541ec2318f3dcf7e000000000000000000000000000000000000000000000000000000000000000000000000000000000000000000000000000000000000000000000000000000600000000000000000000000000000000000000000000000000000000000000044095ea7b3000000000000000000000000165435cc57e72bb54fb54c76b7907459d4c9a03400000000000000000000000000000000000000000000000000000000000003e800000000000000000000000000000000000000000000000000000000000000000000000000000000165435cc57e72bb54fb54c76b7907459d4c9a0340000000000000000000000000000000000000000000000000000000000000000000000000000000000000000000000000000000000000000000000000000006000000000000000000000000000000000000000000000000000000000000000647372c2b5000000000000000000000000036cbd53842c5426634e7929541ec2318f3dcf7e00000000000000000000000056c604fefb713f394e808f3b8186715445f0721f00000000000000000000000000000000000000000000000000000000000003e80000000000000000000000000000000000000000000000000000000000000000000000000000000000000000000000000000000000000000000000000000000000000000000000000000000000000000000000000000000000000000000000000000000000000000000000000000000000000000000000411cdf2e933b00d1b6b837ca1bfc3ed82bd1136f9e5fd4d24eace844d8ad9e955212a1cffe06d8c707e2f6b730496f3b86e9218f72b00d2a96a2cea410e16c892b1c00000000000000000000000000000000000000000000000000000000000000",
        "nonce": "0x15",
        "chainId": "0x14a34"
      },
      "additionalContracts": [],
      "isFixedGasLimit": false
    }
  ],
  "receipts": [],
  "libraries": [],
  "pending": [],
  "returns": {},
  "timestamp": 1779878221346,
  "chain": 84532,
  "commit": "7ea7ec2"
}