{
  "transactions": [
    {
      "hash": "0x178b6cf68c96bc49a8dca253322202978de76293891bbab40d3ae50b732b3d76",
      "transactionType": "CALL",
      "contractName": null,
      "contractAddress": "0x4337084d9e255ff0702461cf8895ce9e3b5ff108",
      "function": "handleOps((address,uint256,bytes,bytes,bytes32,uint256,bytes32,bytes,bytes)[],address)",
      "arguments": [
        "[(0xE37ac2BE944Fb089FC95528a9C83d8C30Ce82939, 0, 0x13e9ed32155810fdbd067d4522c492d6f68e59445fbfb9cf000000000000000000000000cef67989ae740cc9c92fa7385f003f84eaafd9150000000000000000000000000000000000000000000000000000000000000000, 0x34fcd5be0000000000000000000000000000000000000000000000000000000000000020000000000000000000000000000000000000000000000000000000000000000200000000000000000000000000000000000000000000000000000000000000400000000000000000000000000000000000000000000000000000000000000120000000000000000000000000036cbd53842c5426634e7929541ec2318f3dcf7e000000000000000000000000000000000000000000000000000000000000000000000000000000000000000000000000000000000000000000000000000000600000000000000000000000000000000000000000000000000000000000000044095ea7b300000000000000000000000089f4916479c81470ca90737e3cc60e99062d338800000000000000000000000000000000000000000000000000000000000003e80000000000000000000000000000000000000000000000000000000000000000000000000000000089f4916479c81470ca90737e3cc60e99062d33880000000000000000000000000000000000000000000000000000000000000000000000000000000000000000000000000000000000000000000000000000006000000000000000000000000000000000000000000000000000000000000000647372c2b5000000000000000000000000036cbd53842c5426634e7929541ec2318f3dcf7e000000000000000000000000e37ac2be944fb089fc95528a9c83d8c30ce8293900000000000000000000000000000000000000000000000000000000000003e800000000000000000000000000000000000000000000000000000000, 0x0000000000000000000000000003d090000000000000000000000000000186a0, 100000, 0x0000000000000000000000003b9aca00000000000000000000000002540be400, 0x, 0xabc6ec372a5ad87aadc546b03bba5e94820810b76dc3ce938dcb4376c20332522e952692c27080e2bfc0399e8ccec29da71f19356c36647987f5a07e7d8bb0b21c)]",
        "0x19Ef7532C4B4750da2DC328e950ac332d50626ce"
      ],
      "transaction": {
        "from": "0x19ef7532c4b4750da2dc328e950ac332d50626ce",
        "to": "0x4337084d9e255ff0702461cf8895ce9e3b5ff108",
        "gas": "0x5d01f",
        "value": "0x0",
        "input": "0x765e827f000000000000000000000000000000000000000000000000000000000000004000000000000000000000000019ef7532c4b4750da2dc328e950ac332d50626ce00000000000000000000000000000000000000000000000000000000000000010000000000000000000000000000000000000000000000000000000000000020000000000000000000000000e37ac2be944fb089fc95528a9c83d8c30ce829390000000000000000000000000000000000000000000000000000000000000000000000000000000000000000000000000000000000000000000000000000012000000000000000000000000000000000000000000000000000000000000001a00000000000000000000000000003d090000000000000000000000000000186a000000000000000000000000000000000000000000000000000000000000186a00000000000000000000000003b9aca00000000000000000000000002540be40000000000000000000000000000000000000000000000000000000000000004400000000000000000000000000000000000000000000000000000000000000460000000000000000000000000000000000000000000000000000000000000005813e9ed32155810fdbd067d4522c492d6f68e59445fbfb9cf000000000000000000000000cef67989ae740cc9c92fa7385f003f84eaafd91500000000000000000000000000000000000000000000000000000000000000000000000000000000000000000000000000000000000000000000000000000000000000000000026434fcd5be0000000000000000000000000000000000000000000000000000000000000020000000000000000000000000000000000000000000000000000000000000000200000000000000000000000000000000000000000000000000000000000000400000000000000000000000000000000000000000000000000000000000000120000000000000000000000000036cbd53842c5426634e7929541ec2318f3dcf7e000000000000000000000000000000000000000000000000000000000000000000000000000000000000000000000000000000000000000000000000000000600000000000000000000000000000000000000000000000000000000000000044095ea7b300000000000000000000000089f4916479c81470ca90737e3cc60e99062d338800000000000000000000000000000000000000000000000000000000000003e80000000000000000000000000000000000000000000000000000000000000000000000000000000089f4916479c81470ca90737e3cc60e99062d33880000000000000000000000000000000000000000000000000000000000000000000000000000000000000000000000000000000000000000000000000000006000000000000000000000000000000000000000000000000000000000000000647372c2b5000000000000000000000000036cbd53842c5426634e7929541ec2318f3dcf7e000000000000000000000000e37ac2be944fb089fc95528a9c83d8c30ce8293900000000000000000000000000000000000000000000000000000000000003e8000000000000000000000000000000000000000000000000000000000000000000000000000000000000000000000000000000000000000000000000000000000000000000000000000000000000000000000000000000000000000000000000000000000000000000000000000000000000000000000041abc6ec372a5ad87aadc546b03bba5e94820810b76dc3ce938dcb4376c20332522e952692c27080e2bfc0399e8ccec29da71f19356c36647987f5a07e7d8bb0b21c00000000000000000000000000000000000000000000000000000000000000",
        "nonce": "0x7",
        "chainId": "0x14a34"
      },
      "additionalContracts": [
        {
          "transactionType": "CREATE2",
          "address": "0xe37ac2be944fb089fc95528a9c83d8c30ce82939",
          "initCode": "0x60806040526102a88038038061001481610168565b92833981016040828203126101645781516001600160a01b03811692909190838303610164576020810151906001600160401b03821161016457019281601f8501121561016457835161006e610069826101a1565b610168565b9481865260208601936020838301011161016457815f926020809301865e86010152823b15610152577f360894a13ba1a3210667c828492db98dca3e2076cc3735a920a3ca505d382bbc80546001600160a01b031916821790557fbc7cd75a20ee27fd9adebab32041f755214dbc6bffa90cc0225b39da2e5c2d3b5f80a282511561013a575f8091610122945190845af43d15610132573d91610113610069846101a1565b9283523d5f602085013e6101bc565b505b604051608d908161021b8239f35b6060916101bc565b50505034156101245763b398979f60e01b5f5260045ffd5b634c9c8ce360e01b5f5260045260245ffd5b5f80fd5b6040519190601f01601f191682016001600160401b0381118382101761018d57604052565b634e487b7160e01b5f52604160045260245ffd5b6001600160401b03811161018d57601f01601f191660200190565b906101e057508051156101d157805190602001fd5b63d6bda27560e01b5f5260045ffd5b81511580610211575b6101f1575090565b639996b31560e01b5f9081526001600160a01b0391909116600452602490fd5b50803b156101e956fe60806040525f8073ffffffffffffffffffffffffffffffffffffffff7f360894a13ba1a3210667c828492db98dca3e2076cc3735a920a3ca505d382bbc5416368280378136915af43d5f803e156053573d5ff35b3d5ffdfea264697066735822122012ef914fc5c0fe0eff95047a7f10780a737a1ca4f30269b985bcf38a18e4d23464736f6c634300081c003300000000000000000000000028426d752372d68d34340bd94390950dce3c9ec300000000000000000000000000000000000000000000000000000000000000400000000000000000000000000000000000000000000000000000000000000024c4d66de8000000000000000000000000cef67989ae740cc9c92fa7385f003f84eaafd91500000000000000000000000000000000000000000000000000000000"
        }
      ],
      "isFixedGasLimit": false
    }
  ],
  "receipts": [
    {
      "status": "0x1",
      "cumulativeGasUsed": "0x201dc7",
      "logs": [
        {
          "address": "0xe37ac2be944fb089fc95528a9c83d8c30ce82939",
          "topics": [
            "0xbc7cd75a20ee27fd9adebab32041f755214dbc6bffa90cc0225b39da2e5c2d3b",
            "0x00000000000000000000000028426d752372d68d34340bd94390950dce3c9ec3"
          ],
          "data": "0x",
          "blockHash": "0xd48860ad870a75850286adb884bca212f9be679ed2bd908e1c8a1828d79ff04e",
          "blockNumber": "0x2813e78",
          "blockTimestamp": "0x6a15dbd0",
          "transactionHash": "0x178b6cf68c96bc49a8dca253322202978de76293891bbab40d3ae50b732b3d76",
          "transactionIndex": "0xe",
          "logIndex": "0x29",
          "removed": false
        },
        {
          "address": "0xe37ac2be944fb089fc95528a9c83d8c30ce82939",
          "topics": [
            "0x47e55c76e7a6f1fd8996a1da8008c1ea29699cca35e7bcd057f2dec313b6e5de",
            "0x0000000000000000000000004337084d9e255ff0702461cf8895ce9e3b5ff108",
            "0x000000000000000000000000cef67989ae740cc9c92fa7385f003f84eaafd915"
          ],
          "data": "0x",
          "blockHash": "0xd48860ad870a75850286adb884bca212f9be679ed2bd908e1c8a1828d79ff04e",
          "blockNumber": "0x2813e78",
          "blockTimestamp": "0x6a15dbd0",
          "transactionHash": "0x178b6cf68c96bc49a8dca253322202978de76293891bbab40d3ae50b732b3d76",
          "transactionIndex": "0xe",
          "logIndex": "0x2a",
          "removed": false
        },
        {
          "address": "0xe37ac2be944fb089fc95528a9c83d8c30ce82939",
          "topics": [
            "0xc7f505b2f371ae2175ee4913f4499e1f2633a7b5936321eed1cdaeb6115181d2"
          ],
          "data": "0x0000000000000000000000000000000000000000000000000000000000000001",
          "blockHash": "0xd48860ad870a75850286adb884bca212f9be679ed2bd908e1c8a1828d79ff04e",
          "blockNumber": "0x2813e78",
          "blockTimestamp": "0x6a15dbd0",
          "transactionHash": "0x178b6cf68c96bc49a8dca253322202978de76293891bbab40d3ae50b732b3d76",
          "transactionIndex": "0xe",
          "logIndex": "0x2b",
          "removed": false
        },
        {
          "address": "0x4337084d9e255ff0702461cf8895ce9e3b5ff108",
          "topics": [
            "0xd51a9c61267aa6196961883ecf5ff2da6619c37dac0fa92122513fb32c032d2d",
            "0x94d954fc378cb6cb9a0867043ac3c9e13ad7bc2d4c7d4b567c445788dab2809b",
            "0x000000000000000000000000e37ac2be944fb089fc95528a9c83d8c30ce82939"
          ],
          "data": "0x00000000000000000000000013e9ed32155810fdbd067d4522c492d6f68e59440000000000000000000000000000000000000000000000000000000000000000",
          "blockHash": "0xd48860ad870a75850286adb884bca212f9be679ed2bd908e1c8a1828d79ff04e",
          "blockNumber": "0x2813e78",
          "blockTimestamp": "0x6a15dbd0",
          "transactionHash": "0x178b6cf68c96bc49a8dca253322202978de76293891bbab40d3ae50b732b3d76",
          "transactionIndex": "0xe",
          "logIndex": "0x2c",
          "removed": false
        },
        {
          "address": "0x4337084d9e255ff0702461cf8895ce9e3b5ff108",
          "topics": [
            "0xbb47ee3e183a558b1a2ff0874b079f3fc5478b7454eacf2bfc5af2ff5878f972"
          ],
          "data": "0x",
          "blockHash": "0xd48860ad870a75850286adb884bca212f9be679ed2bd908e1c8a1828d79ff04e",
          "blockNumber": "0x2813e78",
          "blockTimestamp": "0x6a15dbd0",
          "transactionHash": "0x178b6cf68c96bc49a8dca253322202978de76293891bbab40d3ae50b732b3d76",
          "transactionIndex": "0xe",
          "logIndex": "0x2d",
          "removed": false
        },
        {
          "address": "0x036cbd53842c5426634e7929541ec2318f3dcf7e",
          "topics": [
            "0x8c5be1e5ebec7d5bd14f71427d1e84f3dd0314c0f7b2291e5b200ac8c7c3b925",
            "0x000000000000000000000000e37ac2be944fb089fc95528a9c83d8c30ce82939",
            "0x00000000000000000000000089f4916479c81470ca90737e3cc60e99062d3388"
          ],
          "data": "0x00000000000000000000000000000000000000000000000000000000000003e8",
          "blockHash": "0xd48860ad870a75850286adb884bca212f9be679ed2bd908e1c8a1828d79ff04e",
          "blockNumber": "0x2813e78",
          "blockTimestamp": "0x6a15dbd0",
          "transactionHash": "0x178b6cf68c96bc49a8dca253322202978de76293891bbab40d3ae50b732b3d76",
          "transactionIndex": "0xe",
          "logIndex": "0x2e",
          "removed": false
        },
        {
          "address": "0x4337084d9e255ff0702461cf8895ce9e3b5ff108",
          "topics": [
            "0x49628fd1471006c1482da88028e9ce4dbb080b815c9b0344d39e5a8e6ec1419f",
            "0x94d954fc378cb6cb9a0867043ac3c9e13ad7bc2d4c7d4b567c445788dab2809b",
            "0x000000000000000000000000e37ac2be944fb089fc95528a9c83d8c30ce82939",
            "0x0000000000000000000000000000000000000000000000000000000000000000"
          ],
          "data": "0x00000000000000000000000000000000000000000000000000000000000000000000000000000000000000000000000000000000000000000000000000000001000000000000000000000000000000000000000000000000000131c7aef11a000000000000000000000000000000000000000000000000000000000000051ac8",
          "blockHash": "0xd48860ad870a75850286adb884bca212f9be679ed2bd908e1c8a1828d79ff04e",
          "blockNumber": "0x2813e78",
          "blockTimestamp": "0x6a15dbd0",
          "transactionHash": "0x178b6cf68c96bc49a8dca253322202978de76293891bbab40d3ae50b732b3d76",
          "transactionIndex": "0xe",
          "logIndex": "0x2f",
          "removed": false
        }
      ],
      "logsBloom": "0x000004000400000000000000000000004000040000000000000000000000000000080000000080000000000100000000800000000000000000000a0000200000000040002000000000000000000002000000000000000000000010000000000800000000020000000000000000000800000000000040000000040004000000004000000000000020000800100000000000000300000480000000000000000000020000000040000000400000000000008000000000000000000002000000000000000020000000000001000002000000000000000044200000000010000020000010000000100000000002000020000000000004000000400010000400000000",
      "type": "0x2",
      "transactionHash": "0x178b6cf68c96bc49a8dca253322202978de76293891bbab40d3ae50b732b3d76",
      "transactionIndex": "0xe",
      "blockHash": "0xd48860ad870a75850286adb884bca212f9be679ed2bd908e1c8a1828d79ff04e",
      "blockNumber": "0x2813e78",
      "gasUsed": "0x43560",
      "effectiveGasPrice": "0x4dd1e0",
      "blobGasUsed": "0x2b3a6",
      "from": "0x19ef7532c4b4750da2dc328e950ac332d50626ce",
      "to": "0x4337084d9e255ff0702461cf8895ce9e3b5ff108",
      "contractAddress": null,
      "daFootprintGasScalar": "0x1be",
      "l1BaseFeeScalar": "0x44d",
      "l1BlobBaseFee": "0x3c84702",
      "l1BlobBaseFeeScalar": "0xa118b",
      "l1Fee": "0x5a4d48a31",
      "l1GasPrice": "0x40b3f9b4",
      "l1GasUsed": "0x18d6"
    }
  ],
  "libraries": [],
  "pending": [],
  "returns": {},
  "timestamp": 1779817424674,
  "chain": 84532,
  "commit": "6bc11d5"
}