{
  "transactions": [
    {
      "hash": "0x7723848b0ad1fcdcc17ba34c15f420fa506b077183520e7cf49380457c309945",
      "transactionType": "CALL",
      "contractName": null,
      "contractAddress": "0x833589fcd6edb6e08f4c7c32d4f71b54bda02913",
      "function": "approve(address,uint256)",
      "arguments": [
        "0x89f4916479c81470CA90737e3cc60e99062d3388",
        "1000"
      ],
      "transaction": {
        "from": "0xcef67989ae740cc9c92fa7385f003f84eaafd915",
        "to": "0x833589fcd6edb6e08f4c7c32d4f71b54bda02913",
        "gas": "0x13ca2",
        "value": "0x0",
        "input": "0x095ea7b300000000000000000000000089f4916479c81470ca90737e3cc60e99062d338800000000000000000000000000000000000000000000000000000000000003e8",
        "nonce": "0x3a8",
        "chainId": "0x2105"
      },
      "additionalContracts": [],
      "isFixedGasLimit": false
    },
    {
      "hash": "0x69c0b38094d0567e00317e46954d499202f3f34b38edba878cd89d5627ecc6af",
      "transactionType": "CALL",
      "contractName": null,
      "contractAddress": "0x89f4916479c81470ca90737e3cc60e99062d3388",
      "function": "pull(address,address,uint256)",
      "arguments": [
        "0x833589fCD6eDb6E08f4c7C32D4f71b54bdA02913",
        "0xCEf67989ae740cC9c92fa7385F003F84EAAFd915",
        "1000"
      ],
      "transaction": {
        "from": "0xcef67989ae740cc9c92fa7385f003f84eaafd915",
        "to": "0x89f4916479c81470ca90737e3cc60e99062d3388",
        "gas": "0x18060",
        "value": "0x0",
        "input": "0x7372c2b5000000000000000000000000833589fcd6edb6e08f4c7c32d4f71b54bda02913000000000000000000000000cef67989ae740cc9c92fa7385f003f84eaafd91500000000000000000000000000000000000000000000000000000000000003e8",
        "nonce": "0x3a9",
        "chainId": "0x2105"
      },
      "additionalContracts": [],
      "isFixedGasLimit": false
    }
  ],
  "receipts": [
    {
      "status": "0x1",
      "cumulativeGasUsed": "0x215315e",
      "logs": [
        {
          "address": "0x833589fcd6edb6e08f4c7c32d4f71b54bda02913",
          "topics": [
            "0x8c5be1e5ebec7d5bd14f71427d1e84f3dd0314c0f7b2291e5b200ac8c7c3b925",
            "0x000000000000000000000000cef67989ae740cc9c92fa7385f003f84eaafd915",
            "0x00000000000000000000000089f4916479c81470ca90737e3cc60e99062d3388"
          ],
          "data": "0x00000000000000000000000000000000000000000000000000000000000003e8",
          "blockHash": "0xc2ec3d0687b7afd08940e1357c6e6f10ccea73f13f66c751f93a405ea6b42865",
          "blockNumber": "0x2c25147",
          "blockTimestamp": "0x6a0eff71",
          "transactionHash": "0x7723848b0ad1fcdcc17ba34c15f420fa506b077183520e7cf49380457c309945",
          "transactionIndex": "0xd1",
          "logIndex": "0x295",
          "removed": false
        }
      ],
      "logsBloom": "0x00000000000000000000000000000000000000000000000000000000000000000000000000000000000000000000100000000000000000000000000000200000000000000000000000000000000000000000000000080000000000000000000000800000000000000000000000000000000000000000000000040004000000000000000000000000000000000000000000000000000000000000000000000000020000000040000000000000000000000000000000000000000000000000000000000000000000000000000002000000000000000000000000000000000000000010000000000000000002000000000000000000000000000010000000000000",
      "type": "0x2",
      "transactionHash": "0x7723848b0ad1fcdcc17ba34c15f420fa506b077183520e7cf49380457c309945",
      "transactionIndex": "0xd1",
      "blockHash": "0xc2ec3d0687b7afd08940e1357c6e6f10ccea73f13f66c751f93a405ea6b42865",
      "blockNumber": "0x2c25147",
      "gasUsed": "0xd881",
      "effectiveGasPrice": "0x5b8d80",
      "blobGasUsed": "0x39d0",
      "from": "0xcef67989ae740cc9c92fa7385f003f84eaafd915",
      "to": "0x833589fcd6edb6e08f4c7c32d4f71b54bda02913",
      "contractAddress": null,
      "daFootprintGasScalar": "0x94",
      "l1BaseFeeScalar": "0x8dd",
      "l1BlobBaseFee": "0x60cf36",
      "l1BlobBaseFeeScalar": "0x101c12",
      "l1Fee": "0x402a0650",
      "l1GasPrice": "0x6ad3f82",
      "l1GasUsed": "0x640"
    },
    {
      "status": "0x1",
      "cumulativeGasUsed": "0x2163831",
      "logs": [
        {
          "address": "0x833589fcd6edb6e08f4c7c32d4f71b54bda02913",
          "topics": [
            "0xddf252ad1be2c89b69c2b068fc378daa952ba7f163c4a11628f55a4df523b3ef",
            "0x000000000000000000000000cef67989ae740cc9c92fa7385f003f84eaafd915",
            "0x00000000000000000000000089f4916479c81470ca90737e3cc60e99062d3388"
          ],
          "data": "0x00000000000000000000000000000000000000000000000000000000000003e8",
          "blockHash": "0xc2ec3d0687b7afd08940e1357c6e6f10ccea73f13f66c751f93a405ea6b42865",
          "blockNumber": "0x2c25147",
          "blockTimestamp": "0x6a0eff71",
          "transactionHash": "0x69c0b38094d0567e00317e46954d499202f3f34b38edba878cd89d5627ecc6af",
          "transactionIndex": "0xd2",
          "logIndex": "0x296",
          "removed": false
        }
      ],
      "logsBloom": "0x00000000000000000000000000000000000000000000000000000000000000000000000000000000000000000000100000000000000000000000000000000000000000000000000000000008000000000000000000080000000000000000000000800000000000000000000000000000000000000000000000040014000000000000000000000000000000000000000000000000000000000000000000000000000000000040000000000000000000000000000000000000000000000000000000000002000000000000000002000000000000000000000000000000000000000000000000000000000002000000000000000000000000000010000000000000",
      "type": "0x2",
      "transactionHash": "0x69c0b38094d0567e00317e46954d499202f3f34b38edba878cd89d5627ecc6af",
      "transactionIndex": "0xd2",
      "blockHash": "0xc2ec3d0687b7afd08940e1357c6e6f10ccea73f13f66c751f93a405ea6b42865",
      "blockNumber": "0x2c25147",
      "gasUsed": "0x106d3",
      "effectiveGasPrice": "0x5b8d80",
      "blobGasUsed": "0x3ddc",
      "from": "0xcef67989ae740cc9c92fa7385f003f84eaafd915",
      "to": "0x89f4916479c81470ca90737e3cc60e99062d3388",
      "contractAddress": null,
      "daFootprintGasScalar": "0x94",
      "l1BaseFeeScalar": "0x8dd",
      "l1BlobBaseFee": "0x60cf36",
      "l1BlobBaseFeeScalar": "0x101c12",
      "l1Fee": "0x44c023f6",
      "l1GasPrice": "0x6ad3f82",
      "l1GasUsed": "0x6b2"
    }
  ],
  "libraries": [],
  "pending": [],
  "returns": {},
  "timestamp": 1779367794025,
  "chain": 8453,
  "commit": "2c3b551"
}